{
  "contractName": "ATContract",
  "abi": [
    {
      "constant": true,
      "inputs": [],
      "name": "totalHouses",
      "outputs": [
        {
          "name": "",
          "type": "uint256"
        }
      ],
      "payable": false,
      "stateMutability": "view",
      "type": "function",
      "signature": "0x162d8afb"
    },
    {
      "constant": true,
      "inputs": [],
      "name": "adminCount",
      "outputs": [
        {
          "name": "",
          "type": "uint256"
        }
      ],
      "payable": false,
      "stateMutability": "view",
      "type": "function",
      "signature": "0x2b7832b3"
    },
    {
      "constant": true,
      "inputs": [
        {
          "name": "",
          "type": "address"
        },
        {
          "name": "",
          "type": "uint256"
        }
      ],
      "name": "adminexp",
      "outputs": [
        {
          "name": "adminId",
          "type": "address"
        },
        {
          "name": "category1",
          "type": "uint256"
        },
        {
          "name": "category2",
          "type": "uint256"
        },
        {
          "name": "category3",
          "type": "uint256"
        },
        {
          "name": "category4",
          "type": "uint256"
        },
        {
          "name": "month",
          "type": "uint256"
        },
        {
          "name": "year",
          "type": "uint256"
        },
        {
          "name": "transactId",
          "type": "uint256"
        }
      ],
      "payable": false,
      "stateMutability": "view",
      "type": "function",
      "signature": "0x3c8c450c"
    },
    {
      "constant": true,
      "inputs": [
        {
          "name": "",
          "type": "uint256"
        }
      ],
      "name": "atledger",
      "outputs": [
        {
          "name": "availableAmount",
          "type": "uint256"
        },
        {
          "name": "maintAmount",
          "type": "uint256"
        },
        {
          "name": "adminExp",
          "type": "uint256"
        },
        {
          "name": "isValue",
          "type": "bool"
        }
      ],
      "payable": false,
      "stateMutability": "view",
      "type": "function",
      "signature": "0x650e55bd"
    },
    {
      "constant": true,
      "inputs": [],
      "name": "maintenanceAmount",
      "outputs": [
        {
          "name": "",
          "type": "uint256"
        }
      ],
      "payable": false,
      "stateMutability": "view",
      "type": "function",
      "signature": "0x70c911f9"
    },
    {
      "constant": true,
      "inputs": [
        {
          "name": "",
          "type": "uint256"
        }
      ],
      "name": "houseAddress",
      "outputs": [
        {
          "name": "",
          "type": "address"
        }
      ],
      "payable": false,
      "stateMutability": "view",
      "type": "function",
      "signature": "0x72ed4ada"
    },
    {
      "constant": true,
      "inputs": [
        {
          "name": "",
          "type": "address"
        }
      ],
      "name": "totalMaint",
      "outputs": [
        {
          "name": "",
          "type": "uint256"
        }
      ],
      "payable": false,
      "stateMutability": "view",
      "type": "function",
      "signature": "0x812b0d12"
    },
    {
      "constant": true,
      "inputs": [],
      "name": "adminAmount",
      "outputs": [
        {
          "name": "",
          "type": "uint256"
        }
      ],
      "payable": false,
      "stateMutability": "view",
      "type": "function",
      "signature": "0x8cd66b5a"
    },
    {
      "constant": true,
      "inputs": [
        {
          "name": "",
          "type": "address"
        }
      ],
      "name": "housenodes",
      "outputs": [
        {
          "name": "houseId",
          "type": "address"
        },
        {
          "name": "ownerName",
          "type": "string"
        },
        {
          "name": "haveTenant",
          "type": "uint256"
        },
        {
          "name": "tenantName",
          "type": "string"
        },
        {
          "name": "digitalDocNo",
          "type": "string"
        }
      ],
      "payable": false,
      "stateMutability": "view",
      "type": "function",
      "signature": "0xaceba657"
    },
    {
      "constant": true,
      "inputs": [
        {
          "name": "",
          "type": "uint256"
        }
      ],
      "name": "transactIds",
      "outputs": [
        {
          "name": "",
          "type": "uint256"
        }
      ],
      "payable": false,
      "stateMutability": "view",
      "type": "function",
      "signature": "0xe1fa35b2"
    },
    {
      "constant": true,
      "inputs": [
        {
          "name": "",
          "type": "uint256"
        }
      ],
      "name": "summaryData",
      "outputs": [
        {
          "name": "hID",
          "type": "address"
        },
        {
          "name": "month",
          "type": "uint256"
        },
        {
          "name": "year",
          "type": "uint256"
        },
        {
          "name": "amountPaid",
          "type": "uint256"
        },
        {
          "name": "approved",
          "type": "uint256"
        },
        {
          "name": "transactId",
          "type": "uint256"
        },
        {
          "name": "houseOwner",
          "type": "string"
        },
        {
          "name": "accno",
          "type": "string"
        }
      ],
      "payable": false,
      "stateMutability": "view",
      "type": "function",
      "signature": "0xe6c410e5"
    },
    {
      "constant": true,
      "inputs": [],
      "name": "currentLedger",
      "outputs": [
        {
          "name": "",
          "type": "uint256"
        }
      ],
      "payable": false,
      "stateMutability": "view",
      "type": "function",
      "signature": "0xf23e7dad"
    },
    {
      "constant": true,
      "inputs": [
        {
          "name": "",
          "type": "uint256"
        }
      ],
      "name": "maintenance",
      "outputs": [
        {
          "name": "hID",
          "type": "address"
        },
        {
          "name": "month",
          "type": "uint256"
        },
        {
          "name": "year",
          "type": "uint256"
        },
        {
          "name": "amountPaid",
          "type": "uint256"
        },
        {
          "name": "approved",
          "type": "uint256"
        },
        {
          "name": "transactId",
          "type": "uint256"
        },
        {
          "name": "houseOwner",
          "type": "string"
        },
        {
          "name": "accno",
          "type": "string"
        }
      ],
      "payable": false,
      "stateMutability": "view",
      "type": "function",
      "signature": "0xfbca6ba6"
    },
    {
      "inputs": [],
      "payable": false,
      "stateMutability": "nonpayable",
      "type": "constructor",
      "signature": "constructor"
    },
    {
      "constant": false,
      "inputs": [
        {
          "name": "transactId",
          "type": "uint256"
        }
      ],
      "name": "getMonthlyLedger",
      "outputs": [
        {
          "name": "",
          "type": "uint256"
        },
        {
          "name": "",
          "type": "uint256"
        },
        {
          "name": "",
          "type": "uint256"
        }
      ],
      "payable": false,
      "stateMutability": "nonpayable",
      "type": "function",
      "signature": "0xf119c2ec"
    },
    {
      "constant": false,
      "inputs": [
        {
          "name": "cat1",
          "type": "uint256"
        },
        {
          "name": "cat2",
          "type": "uint256"
        },
        {
          "name": "cat3",
          "type": "uint256"
        },
        {
          "name": "cat4",
          "type": "uint256"
        },
        {
          "name": "month",
          "type": "uint256"
        },
        {
          "name": "year",
          "type": "uint256"
        },
        {
          "name": "transactId",
          "type": "uint256"
        }
      ],
      "name": "registerAdminExpense",
      "outputs": [],
      "payable": false,
      "stateMutability": "nonpayable",
      "type": "function",
      "signature": "0xa6ff8ef1"
    },
    {
      "constant": false,
      "inputs": [
        {
          "name": "month",
          "type": "uint256"
        },
        {
          "name": "year",
          "type": "uint256"
        },
        {
          "name": "adminId",
          "type": "address"
        }
      ],
      "name": "getCurrentATLedger",
      "outputs": [
        {
          "name": "",
          "type": "uint256"
        },
        {
          "name": "",
          "type": "uint256"
        }
      ],
      "payable": false,
      "stateMutability": "nonpayable",
      "type": "function",
      "signature": "0x852b5a10"
    },
    {
      "constant": false,
      "inputs": [
        {
          "name": "oname",
          "type": "string"
        },
        {
          "name": "hId",
          "type": "address"
        }
      ],
      "name": "addOwner",
      "outputs": [],
      "payable": false,
      "stateMutability": "nonpayable",
      "type": "function",
      "signature": "0xd5958b86"
    },
    {
      "constant": false,
      "inputs": [
        {
          "name": "transId",
          "type": "uint256"
        },
        {
          "name": "month",
          "type": "uint256"
        },
        {
          "name": "year",
          "type": "uint256"
        },
        {
          "name": "amnt",
          "type": "uint256"
        },
        {
          "name": "ownerName",
          "type": "string"
        },
        {
          "name": "accNo",
          "type": "string"
        }
      ],
      "name": "registerMaintenance",
      "outputs": [],
      "payable": false,
      "stateMutability": "nonpayable",
      "type": "function",
      "signature": "0xec263513"
    },
    {
      "constant": false,
      "inputs": [
        {
          "name": "transactionId",
          "type": "uint256"
        }
      ],
      "name": "sumIndividualHouseMaint",
      "outputs": [
        {
          "name": "res",
          "type": "uint256"
        }
      ],
      "payable": false,
      "stateMutability": "nonpayable",
      "type": "function",
      "signature": "0xb9e67324"
    },
    {
      "constant": false,
      "inputs": [
        {
          "name": "transId",
          "type": "uint256[]"
        }
      ],
      "name": "approveMaintenance",
      "outputs": [],
      "payable": false,
      "stateMutability": "nonpayable",
      "type": "function",
      "signature": "0x3efc5533"
    },
    {
      "constant": false,
      "inputs": [],
      "name": "returnApprovalData",
      "outputs": [
        {
          "name": "res2",
          "type": "address[]"
        },
        {
          "name": "res1",
          "type": "string[]"
        },
        {
          "name": "res3",
          "type": "string[]"
        },
        {
          "name": "res4",
          "type": "uint256[]"
        },
        {
          "name": "res5",
          "type": "uint256[]"
        }
      ],
      "payable": false,
      "stateMutability": "nonpayable",
      "type": "function",
      "signature": "0x25baaf56"
    },
    {
      "constant": false,
      "inputs": [
        {
          "name": "transId",
          "type": "uint256"
        }
      ],
      "name": "getMaintenanceStatus",
      "outputs": [
        {
          "name": "res",
          "type": "uint256"
        }
      ],
      "payable": false,
      "stateMutability": "nonpayable",
      "type": "function",
      "signature": "0xd759ee59"
    }
  ],
  "bytecode": "0x60806040523480156200001157600080fd5b50620000766040805190810160405280600d81526020017f41504a416264756c4b616c616d0000000000000000000000000000000000000081525073e033d9b9ff9e62c65e63a3064b6118194676ad22620000e0640100000000026401000000009004565b620000da6040805190810160405280600581526020017f5465736c610000000000000000000000000000000000000000000000000000008152507316d34680dc5c4a04ded5f784e41809ac09fc8370620000e0640100000000026401000000009004565b620002f4565b60076000815480929190600101919050555060a0604051908101604052808273ffffffffffffffffffffffffffffffffffffffff16815260200183815260200160008152602001602060405190810160405280600081525081526020016020604051908101604052806000815250815250600660008373ffffffffffffffffffffffffffffffffffffffff1673ffffffffffffffffffffffffffffffffffffffff16815260200190815260200160002060008201518160000160006101000a81548173ffffffffffffffffffffffffffffffffffffffff021916908373ffffffffffffffffffffffffffffffffffffffff1602179055506020820151816001019080519060200190620001f592919062000245565b506040820151816002015560608201518160030190805190602001906200021e92919062000245565b5060808201518160040190805190602001906200023d92919062000245565b509050505050565b828054600181600116156101000203166002900490600052602060002090601f016020900481019282601f106200028857805160ff1916838001178555620002b9565b82800160010185558215620002b9579182015b82811115620002b85782518255916020019190600101906200029b565b5b509050620002c89190620002cc565b5090565b620002f191905b80821115620002ed576000816000905550600101620002d3565b5090565b90565b6126a880620003046000396000f3fe608060405260043610610128576000357c0100000000000000000000000000000000000000000000000000000000900463ffffffff168063162d8afb1461012d57806325baaf56146101585780632b7832b3146101875780633c8c450c146101b25780633efc5533146101f6578063650e55bd1461021f57806370c911f91461025f57806372ed4ada1461028a578063812b0d12146102c7578063852b5a10146103045780638cd66b5a14610342578063a6ff8ef11461036d578063aceba65714610396578063b9e67324146103d7578063d5958b8614610414578063d759ee591461043d578063e1fa35b21461047a578063e6c410e5146104b7578063ec263513146104fb578063f119c2ec14610524578063f23e7dad14610563578063fbca6ba61461058e575b600080fd5b34801561013957600080fd5b506101426105d2565b60405161014f91906123fc565b60405180910390f35b34801561016457600080fd5b5061016d6105d8565b60405161017e959493929190612386565b60405180910390f35b34801561019357600080fd5b5061019c610922565b6040516101a991906123fc565b60405180910390f35b3480156101be57600080fd5b506101d960048036036101d49190810190611dd2565b610928565b6040516101ed989796959493929190612308565b60405180910390f35b34801561020257600080fd5b5061021d60048036036102189190810190611e0e565b6109ac565b005b34801561022b57600080fd5b5061024660048036036102419190810190611ea3565b610c51565b6040516102569493929190612477565b60405180910390f35b34801561026b57600080fd5b50610274610c8e565b60405161028191906123fc565b60405180910390f35b34801561029657600080fd5b506102b160048036036102ac9190810190611ea3565b610c94565b6040516102be91906121f9565b60405180910390f35b3480156102d357600080fd5b506102ee60048036036102e99190810190611da9565b610cd2565b6040516102fb91906123fc565b60405180910390f35b34801561031057600080fd5b5061032b60048036036103269190810190611ecc565b610cea565b604051610339929190612417565b60405180910390f35b34801561034e57600080fd5b50610357610f71565b60405161036491906123fc565b60405180910390f35b34801561037957600080fd5b50610394600480360361038f9190810190611fd4565b610f77565b005b3480156103a257600080fd5b506103bd60048036036103b89190810190611da9565b6110ee565b6040516103ce959493929190612214565b60405180910390f35b3480156103e357600080fd5b506103fe60048036036103f99190810190611ea3565b61130c565b60405161040b91906123fc565b60405180910390f35b34801561042057600080fd5b5061043b60048036036104369190810190611e4f565b611337565b005b34801561044957600080fd5b50610464600480360361045f9190810190611ea3565b611496565b60405161047191906123fc565b60405180910390f35b34801561048657600080fd5b506104a1600480360361049c9190810190611ea3565b6114ca565b6040516104ae91906123fc565b60405180910390f35b3480156104c357600080fd5b506104de60048036036104d99190810190611ea3565b6114ed565b6040516104f298979695949392919061227c565b60405180910390f35b34801561050757600080fd5b50610522600480360361051d9190810190611f1b565b611685565b005b34801561053057600080fd5b5061054b60048036036105469190810190611ea3565b611823565b60405161055a93929190612440565b60405180910390f35b34801561056f57600080fd5b50610578611994565b60405161058591906123fc565b60405180910390f35b34801561059a57600080fd5b506105b560048036036105b09190810190611ea3565b61199a565b6040516105c998979695949392919061227c565b60405180910390f35b60075481565b606080606080606060006001805490509050606080606080606060008090505b86811015610905576009600060018381548110151561061357fe5b9060005260206000200154815260200190815260200160002060000160009054906101000a900473ffffffffffffffffffffffffffffffffffffffff16868281518110151561065e57fe5b9060200190602002019073ffffffffffffffffffffffffffffffffffffffff16908173ffffffffffffffffffffffffffffffffffffffff1681525050600960006001838154811015156106ad57fe5b906000526020600020015481526020019081526020016000206006018054600181600116156101000203166002900480601f01602080910402602001604051908101604052809291908181526020018280546001816001161561010002031660029004801561075d5780601f106107325761010080835404028352916020019161075d565b820191906000526020600020905b81548152906001019060200180831161074057829003601f168201915b5050505050858281518110151561077057fe5b906020019060200201819052506009600060018381548110151561079057fe5b906000526020600020015481526020019081526020016000206007018054600181600116156101000203166002900480601f0160208091040260200160405190810160405280929190818152602001828054600181600116156101000203166002900480156108405780601f1061081557610100808354040283529160200191610840565b820191906000526020600020905b81548152906001019060200180831161082357829003601f168201915b5050505050848281518110151561085357fe5b906020019060200201819052506009600060018381548110151561087357fe5b9060005260206000200154815260200190815260200160002060050154838281518110151561089e57fe5b9060200190602002018181525050600960006001838154811015156108bf57fe5b906000526020600020015481526020019081526020016000206003015482828151811015156108ea57fe5b906020019060200201818152505080806001019150506105f8565b5084848484849a509a509a509a509a505050505050509091929394565b600b5481565b600c6020528160005260406000208181548110151561094357fe5b9060005260206000209060080201600091509150508060000160009054906101000a900473ffffffffffffffffffffffffffffffffffffffff16908060010154908060020154908060030154908060040154908060050154908060060154908060070154905088565b60008151905060008090505b81811015610c4c5760006008600085848151811015156109d457fe5b90602001906020020151815260200190815260200160002060050154141515610c3f576001600860008584815181101515610a0b57fe5b90602001906020020151815260200190815260200160002060040181905550600860008483815181101515610a3c57fe5b906020019060200201518152602001908152602001600020600960008584815181101515610a6657fe5b9060200190602002015181526020019081526020016000206000820160009054906101000a900473ffffffffffffffffffffffffffffffffffffffff168160000160006101000a81548173ffffffffffffffffffffffffffffffffffffffff021916908373ffffffffffffffffffffffffffffffffffffffff160217905550600182015481600101556002820154816002015560038201548160030155600482015481600401556005820154816005015560068201816006019080546001816001161561010002031660029004610b3e929190611b32565b5060078201816007019080546001816001161561010002031660029004610b66929190611b32565b50905050600860008483815181101515610b7c57fe5b9060200190602002015181526020019081526020016000206003015460035401600381905550600860008483815181101515610bb457fe5b906020019060200201518152602001908152602001600020600080820160006101000a81549073ffffffffffffffffffffffffffffffffffffffff021916905560018201600090556002820160009055600382016000905560048201600090556005820160009055600682016000610c2c9190611bb9565b600782016000610c3c9190611bb9565b50505b80806001019150506109b8565b505050565b60056020528060005260406000206000915090508060000154908060010154908060020154908060030160009054906101000a900460ff16905084565b60035481565b600081815481101515610ca357fe5b906000526020600020016000915054906101000a900473ffffffffffffffffffffffffffffffffffffffff1681565b600a6020528060005260406000206000915090505481565b60008060008090505b600b54811015610f675785600c60008673ffffffffffffffffffffffffffffffffffffffff1673ffffffffffffffffffffffffffffffffffffffff16815260200190815260200160002082815481101515610d4a57fe5b90600052602060002090600802016005015411158015610dc7575084600c60008673ffffffffffffffffffffffffffffffffffffffff1673ffffffffffffffffffffffffffffffffffffffff16815260200190815260200160002082815481101515610db257fe5b90600052602060002090600802016006015411155b15610f5a576000600c60008673ffffffffffffffffffffffffffffffffffffffff1673ffffffffffffffffffffffffffffffffffffffff16815260200190815260200160002082815481101515610e1a57fe5b906000526020600020906008020160040154600c60008773ffffffffffffffffffffffffffffffffffffffff1673ffffffffffffffffffffffffffffffffffffffff16815260200190815260200160002083815481101515610e7857fe5b906000526020600020906008020160030154600c60008873ffffffffffffffffffffffffffffffffffffffff1673ffffffffffffffffffffffffffffffffffffffff16815260200190815260200160002084815481101515610ed657fe5b906000526020600020906008020160020154600c60008973ffffffffffffffffffffffffffffffffffffffff1673ffffffffffffffffffffffffffffffffffffffff16815260200190815260200160002085815481101515610f3457fe5b906000526020600020906008020160010154010101905060025481935093505050610f69565b8080600101915050610cf3565b505b935093915050565b60045481565b600c60003373ffffffffffffffffffffffffffffffffffffffff1673ffffffffffffffffffffffffffffffffffffffff168152602001908152602001600020610100604051908101604052803373ffffffffffffffffffffffffffffffffffffffff168152602001898152602001888152602001878152602001868152602001858152602001848152602001838152509080600181540180825580915050906001820390600052602060002090600802016000909192909190915060008201518160000160006101000a81548173ffffffffffffffffffffffffffffffffffffffff021916908373ffffffffffffffffffffffffffffffffffffffff1602179055506020820151816001015560408201518160020155606082015181600301556080820151816004015560a0820151816005015560c0820151816006015560e082015181600701555050508385878901010160045401600481905550600b6000815480929190600101919050555050505050505050565b60066020528060005260406000206000915090508060000160009054906101000a900473ffffffffffffffffffffffffffffffffffffffff1690806001018054600181600116156101000203166002900480601f0160208091040260200160405190810160405280929190818152602001828054600181600116156101000203166002900480156111c05780601f10611195576101008083540402835291602001916111c0565b820191906000526020600020905b8154815290600101906020018083116111a357829003601f168201915b505050505090806002015490806003018054600181600116156101000203166002900480601f0160208091040260200160405190810160405280929190818152602001828054600181600116156101000203166002900480156112645780601f1061123957610100808354040283529160200191611264565b820191906000526020600020905b81548152906001019060200180831161124757829003601f168201915b505050505090806004018054600181600116156101000203166002900480601f0160208091040260200160405190810160405280929190818152602001828054600181600116156101000203166002900480156113025780601f106112d757610100808354040283529160200191611302565b820191906000526020600020905b8154815290600101906020018083116112e557829003601f168201915b5050505050905085565b6000806000905060086000848152602001908152602001600020600301548101905080915050919050565b60076000815480929190600101919050555060a0604051908101604052808273ffffffffffffffffffffffffffffffffffffffff16815260200183815260200160008152602001602060405190810160405280600081525081526020016020604051908101604052806000815250815250600660008373ffffffffffffffffffffffffffffffffffffffff1673ffffffffffffffffffffffffffffffffffffffff16815260200190815260200160002060008201518160000160006101000a81548173ffffffffffffffffffffffffffffffffffffffff021916908373ffffffffffffffffffffffffffffffffffffffff160217905550602082015181600101908051906020019061144a929190611c01565b50604082015181600201556060820151816003019080519060200190611471929190611c01565b50608082015181600401908051906020019061148e929190611c01565b509050505050565b60006001600960008481526020019081526020016000206004015414156114c057600190506114c5565b600090505b919050565b6001818154811015156114d957fe5b906000526020600020016000915090505481565b60096020528060005260406000206000915090508060000160009054906101000a900473ffffffffffffffffffffffffffffffffffffffff1690806001015490806002015490806003015490806004015490806005015490806006018054600181600116156101000203166002900480601f0160208091040260200160405190810160405280929190818152602001828054600181600116156101000203166002900480156115dd5780601f106115b2576101008083540402835291602001916115dd565b820191906000526020600020905b8154815290600101906020018083116115c057829003601f168201915b505050505090806007018054600181600116156101000203166002900480601f01602080910402602001604051908101604052809291908181526020018280546001816001161561010002031660029004801561167b5780601f106116505761010080835404028352916020019161167b565b820191906000526020600020905b81548152906001019060200180831161165e57829003601f168201915b5050505050905088565b610100604051908101604052803373ffffffffffffffffffffffffffffffffffffffff16815260200186815260200185815260200184815260200160008152602001878152602001838152602001828152506008600088815260200190815260200160002060008201518160000160006101000a81548173ffffffffffffffffffffffffffffffffffffffff021916908373ffffffffffffffffffffffffffffffffffffffff1602179055506020820151816001015560408201518160020155606082015181600301556080820151816004015560a0820151816005015560c082015181600601908051906020019061177f929190611c01565b5060e082015181600701908051906020019061179c929190611c01565b509050506001869080600181540180825580915050906001820390600052602060002001600090919290919091505550600a60003373ffffffffffffffffffffffffffffffffffffffff1673ffffffffffffffffffffffffffffffffffffffff16815260200190815260200160002060008154809291906001019190505550505050505050565b60008060006005600085815260200190815260200160002060030160009054906101000a900460ff16156118a15760056000858152602001908152602001600020600001546005600086815260200190815260200160002060010154600560008781526020019081526020016000206002015492509250925061198d565b60806040519081016040528060035460025401815260200160035481526020016004548152602001600115158152506005600086815260200190815260200160002060008201518160000155602082015181600101556040820151816002015560608201518160030160006101000a81548160ff02191690831515021790555090505060035460025401600281905550600060038190555060006004819055506005600085815260200190815260200160002060000154600560008681526020019081526020016000206001015460056000878152602001908152602001600020600201549250925092505b9193909250565b60025481565b60086020528060005260406000206000915090508060000160009054906101000a900473ffffffffffffffffffffffffffffffffffffffff1690806001015490806002015490806003015490806004015490806005015490806006018054600181600116156101000203166002900480601f016020809104026020016040519081016040528092919081815260200182805460018160011615610100020316600290048015611a8a5780601f10611a5f57610100808354040283529160200191611a8a565b820191906000526020600020905b815481529060010190602001808311611a6d57829003601f168201915b505050505090806007018054600181600116156101000203166002900480601f016020809104026020016040519081016040528092919081815260200182805460018160011615610100020316600290048015611b285780601f10611afd57610100808354040283529160200191611b28565b820191906000526020600020905b815481529060010190602001808311611b0b57829003601f168201915b5050505050905088565b828054600181600116156101000203166002900490600052602060002090601f016020900481019282601f10611b6b5780548555611ba8565b82800160010185558215611ba857600052602060002091601f016020900482015b82811115611ba7578254825591600101919060010190611b8c565b5b509050611bb59190611c81565b5090565b50805460018160011615610100020316600290046000825580601f10611bdf5750611bfe565b601f016020900490600052602060002090810190611bfd9190611c81565b5b50565b828054600181600116156101000203166002900490600052602060002090601f016020900481019282601f10611c4257805160ff1916838001178555611c70565b82800160010185558215611c70579182015b82811115611c6f578251825591602001919060010190611c54565b5b509050611c7d9190611c81565b5090565b611ca391905b80821115611c9f576000816000905550600101611c87565b5090565b90565b6000611cb282356125ff565b905092915050565b600082601f8301121515611ccd57600080fd5b8135611ce0611cdb826124e9565b6124bc565b91508181835260208401935060208101905083856020840282011115611d0557600080fd5b60005b83811015611d355781611d1b8882611d95565b845260208401935060208301925050600181019050611d08565b5050505092915050565b600082601f8301121515611d5257600080fd5b8135611d65611d6082612511565b6124bc565b91508082526020830160208301858383011115611d8157600080fd5b611d8c83828461261b565b50505092915050565b6000611da18235612611565b905092915050565b600060208284031215611dbb57600080fd5b6000611dc984828501611ca6565b91505092915050565b60008060408385031215611de557600080fd5b6000611df385828601611ca6565b9250506020611e0485828601611d95565b9150509250929050565b600060208284031215611e2057600080fd5b600082013567ffffffffffffffff811115611e3a57600080fd5b611e4684828501611cba565b91505092915050565b60008060408385031215611e6257600080fd5b600083013567ffffffffffffffff811115611e7c57600080fd5b611e8885828601611d3f565b9250506020611e9985828601611ca6565b9150509250929050565b600060208284031215611eb557600080fd5b6000611ec384828501611d95565b91505092915050565b600080600060608486031215611ee157600080fd5b6000611eef86828701611d95565b9350506020611f0086828701611d95565b9250506040611f1186828701611ca6565b9150509250925092565b60008060008060008060c08789031215611f3457600080fd5b6000611f4289828a01611d95565b9650506020611f5389828a01611d95565b9550506040611f6489828a01611d95565b9450506060611f7589828a01611d95565b935050608087013567ffffffffffffffff811115611f9257600080fd5b611f9e89828a01611d3f565b92505060a087013567ffffffffffffffff811115611fbb57600080fd5b611fc789828a01611d3f565b9150509295509295509295565b600080600080600080600060e0888a031215611fef57600080fd5b6000611ffd8a828b01611d95565b975050602061200e8a828b01611d95565b965050604061201f8a828b01611d95565b95505060606120308a828b01611d95565b94505060806120418a828b01611d95565b93505060a06120528a828b01611d95565b92505060c06120638a828b01611d95565b91505092959891949750929550565b61207b816125b7565b82525050565b600061208c82612564565b80845260208401935061209e8361253d565b60005b828110156120d0576120b4868351612072565b6120bd82612590565b91506020860195506001810190506120a1565b50849250505092915050565b60006120e78261256f565b808452602084019350836020820285016121008561254a565b60005b8481101561213957838303885261211b8383516121b4565b92506121268261259d565b9150602088019750600181019050612103565b508196508694505050505092915050565b60006121558261257a565b80845260208401935061216783612557565b60005b828110156121995761217d8683516121ea565b612186826125aa565b915060208601955060018101905061216a565b50849250505092915050565b6121ae816125c9565b82525050565b60006121bf82612585565b8084526121d381602086016020860161262a565b6121dc8161265d565b602085010191505092915050565b6121f3816125f5565b82525050565b600060208201905061220e6000830184612072565b92915050565b600060a0820190506122296000830188612072565b818103602083015261223b81876121b4565b905061224a60408301866121ea565b818103606083015261225c81856121b4565b9050818103608083015261227081846121b4565b90509695505050505050565b600061010082019050612292600083018b612072565b61229f602083018a6121ea565b6122ac60408301896121ea565b6122b960608301886121ea565b6122c660808301876121ea565b6122d360a08301866121ea565b81810360c08301526122e581856121b4565b905081810360e08301526122f981846121b4565b90509998505050505050505050565b60006101008201905061231e600083018b612072565b61232b602083018a6121ea565b61233860408301896121ea565b61234560608301886121ea565b61235260808301876121ea565b61235f60a08301866121ea565b61236c60c08301856121ea565b61237960e08301846121ea565b9998505050505050505050565b600060a08201905081810360008301526123a08188612081565b905081810360208301526123b481876120dc565b905081810360408301526123c881866120dc565b905081810360608301526123dc818561214a565b905081810360808301526123f0818461214a565b90509695505050505050565b600060208201905061241160008301846121ea565b92915050565b600060408201905061242c60008301856121ea565b61243960208301846121ea565b9392505050565b600060608201905061245560008301866121ea565b61246260208301856121ea565b61246f60408301846121ea565b949350505050565b600060808201905061248c60008301876121ea565b61249960208301866121ea565b6124a660408301856121ea565b6124b360608301846121a5565b95945050505050565b6000604051905081810181811067ffffffffffffffff821117156124df57600080fd5b8060405250919050565b600067ffffffffffffffff82111561250057600080fd5b602082029050602081019050919050565b600067ffffffffffffffff82111561252857600080fd5b601f19601f8301169050602081019050919050565b6000602082019050919050565b6000602082019050919050565b6000602082019050919050565b600081519050919050565b600081519050919050565b600081519050919050565b600081519050919050565b6000602082019050919050565b6000602082019050919050565b6000602082019050919050565b60006125c2826125d5565b9050919050565b60008115159050919050565b600073ffffffffffffffffffffffffffffffffffffffff82169050919050565b6000819050919050565b600061260a826125d5565b9050919050565b6000819050919050565b82818337600083830152505050565b60005b8381101561264857808201518184015260208101905061262d565b83811115612657576000848401525b50505050565b6000601f19601f830116905091905056fea265627a7a72305820c791a44070e3121f7f36bc2527db6c92521bd93830cc9b9929ed4092269967916c6578706572696d656e74616cf50037",
  "source": "pragma solidity ^0.5.0;\r\npragma experimental ABIEncoderV2;\r\n\r\ncontract ATContract{\r\n//Need to change datatype of HID as address in future\r\naddress[] public houseAddress;\r\nuint[] public transactIds;\r\nuint public currentLedger;\r\nuint public maintenanceAmount;\r\nuint public adminAmount;\r\nstruct ATLedger{\r\n   uint availableAmount;\r\n   uint maintAmount;\r\n   uint adminExp;\r\n   bool isValue;\r\n}\r\nmapping(uint=>ATLedger) public atledger;\r\nfunction getMonthlyLedger(uint transactId) public returns (uint,uint,uint){\r\n   if(atledger[transactId].isValue){\r\n     return (atledger[transactId].availableAmount,atledger[transactId].maintAmount,atledger[transactId].adminExp);\r\n   }else{\r\n      atledger[transactId] = ATLedger(currentLedger+maintenanceAmount,maintenanceAmount,adminAmount,true);\r\n      currentLedger = currentLedger + maintenanceAmount;\r\n      maintenanceAmount = 0;\r\n      adminAmount = 0;\r\n      return (atledger[transactId].availableAmount,atledger[transactId].maintAmount,atledger[transactId].adminExp);\r\n   }\r\n}\r\n  struct houseNode{\r\n     address houseId;//need to change this to adddress\r\n     string ownerName;\r\n     uint haveTenant;\r\n     string tenantName;\r\n     string digitalDocNo;\r\n  }\r\n  mapping(address => houseNode) public housenodes;\r\n  uint public totalHouses;\r\n  struct houseMaint{\r\n     address hID;//address\r\n     uint month;\r\n     uint year;\r\n     uint amountPaid;\r\n     uint approved;\r\n     uint transactId;\r\n     string houseOwner;\r\n     string accno;\r\n  }\r\n  //here uint has to be changed to address\r\n  mapping(uint => houseMaint) public maintenance;//transaction id\r\n  mapping(uint => houseMaint) public summaryData;\r\n  //Here also uint needs to be changed to address\r\n  mapping(address => uint) public totalMaint;\r\n  uint public adminCount;\r\n  struct adminExpenses{\r\n     address adminId;\r\n     uint category1;\r\n     uint category2;\r\n     uint category3;\r\n     uint category4;\r\n     uint month;\r\n     uint year;\r\n     uint transactId;\r\n  }\r\n  mapping(address => adminExpenses[]) public adminexp;\r\n  function registerAdminExpense(uint cat1,uint cat2,uint cat3,uint cat4,uint month,uint year,uint transactId) public{\r\n      adminexp[msg.sender].push(adminExpenses(msg.sender,cat1,cat2,cat3,cat4,month,year,transactId));\r\n      adminAmount = adminAmount + (cat1+cat2+cat3+cat4);\r\n      adminCount++;\r\n  }\r\n  function getCurrentATLedger(uint month,uint year,address adminId) public returns(uint,uint){\r\n    uint loop;\r\n    for(loop=0;loop<adminCount;loop++){\r\n       if(adminexp[adminId][loop].month<=month&&adminexp[adminId][loop].year<=year){\r\n       uint adminExp = adminexp[adminId][loop].category1+adminexp[adminId][loop].category2\r\n       +adminexp[adminId][loop].category3+adminexp[adminId][loop].category4;\r\n          return (currentLedger,adminExp);\r\n       }\r\n    }\r\n  }\r\n  function addOwner(string memory oname,address hId) public {\r\n     totalHouses++;\r\n     housenodes[hId] = houseNode(hId,oname,0,\"\",\"\");\r\n  }\r\n  function registerMaintenance(uint transId,uint month,uint year,uint amnt,string memory ownerName,string memory accNo) public{\r\n    //Todo: Need to check that the house has not done its payment\r\n    maintenance[transId] = houseMaint(msg.sender,month,year,amnt,0,transId,ownerName,accNo);\r\n    transactIds.push(transId);\r\n    totalMaint[msg.sender]++;\r\n  }\r\n  function sumIndividualHouseMaint(uint transactionId) public returns (uint res){\r\n     uint totalSum = 0;\r\n\r\n       totalSum = totalSum + maintenance[transactionId].amountPaid;\r\n       return totalSum;\r\n  }\r\n  function approveMaintenance(uint[] memory transId) public {\r\n  uint len = transId.length;\r\n  uint ind;\r\n  for(ind=0;ind<len;ind++){\r\n        if(maintenance[transId[ind]].transactId!=0){\r\n            maintenance[transId[ind]].approved = 1;\r\n            summaryData[transId[ind]] = maintenance[transId[ind]];\r\n            maintenanceAmount = maintenanceAmount + maintenance[transId[ind]].amountPaid;\r\n            delete maintenance[transId[ind]];\r\n          //  return 1;\r\n            }\r\n  }\r\n\r\n  }\r\n  function returnApprovalData() public returns(address[] memory res2,string[] memory res1,string[] memory res3,uint[] memory res4\r\n  ,uint[] memory res5){\r\n  uint arrLen = transactIds.length;\r\n    address[] memory houseId;\r\n    string[] memory ownerName;\r\n    string[] memory accno;\r\n    uint[] memory transactId;\r\n    uint[] memory amount;\r\n    for(uint ind=0;ind<arrLen;ind++){\r\n       houseId[ind] = (summaryData[transactIds[ind]].hID);\r\n       ownerName[ind] = (summaryData[transactIds[ind]].houseOwner);\r\n       accno[ind] = (summaryData[transactIds[ind]].accno);\r\n       transactId[ind] = (summaryData[transactIds[ind]].transactId);\r\n       amount[ind] = (summaryData[transactIds[ind]].amountPaid);\r\n    }\r\n    return (houseId,ownerName,accno,transactId,amount);\r\n  }\r\n  function getMaintenanceStatus(uint transId) public returns (uint res){\r\n      if(summaryData[transId].approved==1){\r\n              return 1;//got approved\r\n      }\r\n\r\n  return 0;//need to approval or not yet paid\r\n  }\r\n  constructor() public {\r\n      addOwner(\"APJAbdulKalam\",0xE033d9b9FF9e62C65e63A3064B6118194676aD22);\r\n      addOwner(\"Tesla\",0x16D34680dc5c4A04DED5f784e41809AC09fc8370);\r\n  }\r\n}\r\n",
  "sourcePath": "C:/Users/Sanjay/smart_apt/contracts/ATContract.sol",
  "compiler": {
    "name": "solc",
    "version": "0.5.0+commit.1d4f565a.Emscripten.clang"
  },
  "schemaVersion": "3.0.2",
  "updatedAt": "2019-06-22T19:19:33.452Z",
  "devdoc": {
    "methods": {}
  },
  "userdoc": {
    "methods": {}
  }
}