{
  "contractName": "ATContract",
  "abi": [
    {
      "constant": true,
      "inputs": [
        {
          "name": "",
          "type": "uint256"
        },
        {
          "name": "",
          "type": "uint256"
        }
      ],
      "name": "maintenance",
      "outputs": [
        {
          "name": "hID",
          "type": "string"
        },
        {
          "name": "month",
          "type": "uint256"
        },
        {
          "name": "year",
          "type": "uint256"
        },
        {
          "name": "amountPaid",
          "type": "uint256"
        }
      ],
      "payable": false,
      "stateMutability": "view",
      "type": "function",
      "signature": "0x0863e9fa"
    },
    {
      "constant": true,
      "inputs": [],
      "name": "totalHouses",
      "outputs": [
        {
          "name": "",
          "type": "uint256"
        }
      ],
      "payable": false,
      "stateMutability": "view",
      "type": "function",
      "signature": "0x162d8afb"
    },
    {
      "constant": true,
      "inputs": [
        {
          "name": "",
          "type": "uint256"
        }
      ],
      "name": "houseAddress",
      "outputs": [
        {
          "name": "",
          "type": "string"
        }
      ],
      "payable": false,
      "stateMutability": "view",
      "type": "function",
      "signature": "0x72ed4ada"
    },
    {
      "constant": true,
      "inputs": [
        {
          "name": "",
          "type": "uint256"
        }
      ],
      "name": "housenodes",
      "outputs": [
        {
          "name": "houseId",
          "type": "uint256"
        },
        {
          "name": "ownerName",
          "type": "string"
        },
        {
          "name": "haveTenant",
          "type": "uint256"
        },
        {
          "name": "tenantName",
          "type": "string"
        },
        {
          "name": "digitalDocNo",
          "type": "string"
        }
      ],
      "payable": false,
      "stateMutability": "view",
      "type": "function",
      "signature": "0xd2b03291"
    },
    {
      "inputs": [],
      "payable": false,
      "stateMutability": "nonpayable",
      "type": "constructor",
      "signature": "constructor"
    },
    {
      "constant": false,
      "inputs": [
        {
          "name": "oname",
          "type": "string"
        }
      ],
      "name": "addOwner",
      "outputs": [],
      "payable": false,
      "stateMutability": "nonpayable",
      "type": "function",
      "signature": "0xf141bd60"
    },
    {
      "constant": false,
      "inputs": [
        {
          "name": "id",
          "type": "uint256"
        },
        {
          "name": "hid",
          "type": "string"
        },
        {
          "name": "month",
          "type": "uint256"
        },
        {
          "name": "year",
          "type": "uint256"
        },
        {
          "name": "amnt",
          "type": "uint256"
        }
      ],
      "name": "registerMaintenance",
      "outputs": [],
      "payable": false,
      "stateMutability": "nonpayable",
      "type": "function",
      "signature": "0x722ad67c"
    }
  ],
  "bytecode": "0x60806040523480156200001157600080fd5b50620000616040805190810160405280600d81526020017f41504a416264756c4b616c616d00000000000000000000000000000000000000815250620000b6640100000000026401000000009004565b620000b06040805190810160405280600581526020017f5465736c61000000000000000000000000000000000000000000000000000000815250620000b6640100000000026401000000009004565b6200024e565b60026000815480929190600101919050555060a060405190810160405280600254815260200182815260200160008152602001602060405190810160405280600081525081526020016020604051908101604052806000815250815250600160006002548152602001908152602001600020600082015181600001556020820151816001019080519060200190620001509291906200019f565b50604082015181600201556060820151816003019080519060200190620001799291906200019f565b506080820151816004019080519060200190620001989291906200019f565b5090505050565b828054600181600116156101000203166002900490600052602060002090601f016020900481019282601f10620001e257805160ff191683800117855562000213565b8280016001018555821562000213579182015b8281111562000212578251825591602001919060010190620001f5565b5b50905062000222919062000226565b5090565b6200024b91905b80821115620002475760008160009055506001016200022d565b5090565b90565b610b7d806200025e6000396000f3fe608060405260043610610078576000357c0100000000000000000000000000000000000000000000000000000000900463ffffffff1680630863e9fa1461007d578063162d8afb14610150578063722ad67c1461017b57806372ed4ada1461026b578063d2b032911461031f578063f141bd60146104b9575b600080fd5b34801561008957600080fd5b506100c0600480360360408110156100a057600080fd5b810190808035906020019092919080359060200190929190505050610581565b6040518080602001858152602001848152602001838152602001828103825286818151815260200191508051906020019080838360005b838110156101125780820151818401526020810190506100f7565b50505050905090810190601f16801561013f5780820380516001836020036101000a031916815260200191505b509550505050505060405180910390f35b34801561015c57600080fd5b50610165610665565b6040518082815260200191505060405180910390f35b34801561018757600080fd5b50610269600480360360a081101561019e57600080fd5b8101908080359060200190929190803590602001906401000000008111156101c557600080fd5b8201836020820111156101d757600080fd5b803590602001918460018302840111640100000000831117156101f957600080fd5b91908080601f016020809104026020016040519081016040528093929190818152602001838380828437600081840152601f19601f82011690508083019250505050505050919291929080359060200190929190803590602001909291908035906020019092919050505061066b565b005b34801561027757600080fd5b506102a46004803603602081101561028e57600080fd5b8101908080359060200190929190505050610710565b6040518080602001828103825283818151815260200191508051906020019080838360005b838110156102e45780820151818401526020810190506102c9565b50505050905090810190601f1680156103115780820380516001836020036101000a031916815260200191505b509250505060405180910390f35b34801561032b57600080fd5b506103586004803603602081101561034257600080fd5b81019080803590602001909291905050506107cb565b60405180868152602001806020018581526020018060200180602001848103845288818151815260200191508051906020019080838360005b838110156103ac578082015181840152602081019050610391565b50505050905090810190601f1680156103d95780820380516001836020036101000a031916815260200191505b50848103835286818151815260200191508051906020019080838360005b838110156104125780820151818401526020810190506103f7565b50505050905090810190601f16801561043f5780820380516001836020036101000a031916815260200191505b50848103825285818151815260200191508051906020019080838360005b8381101561047857808201518184015260208101905061045d565b50505050905090810190601f1680156104a55780820380516001836020036101000a031916815260200191505b509850505050505050505060405180910390f35b3480156104c557600080fd5b5061057f600480360360208110156104dc57600080fd5b81019080803590602001906401000000008111156104f957600080fd5b82018360208201111561050b57600080fd5b8035906020019184600183028401116401000000008311171561052d57600080fd5b91908080601f016020809104026020016040519081016040528093929190818152602001838380828437600081840152601f19601f8201169050808301925050505050505091929192905050506109c9565b005b60036020528160005260406000208181548110151561059c57fe5b906000526020600020906004020160009150915050806000018054600181600116156101000203166002900480601f0160208091040260200160405190810160405280929190818152602001828054600181600116156101000203166002900480156106495780601f1061061e57610100808354040283529160200191610649565b820191906000526020600020905b81548152906001019060200180831161062c57829003601f168201915b5050505050908060010154908060020154908060030154905084565b60025481565b60036000868152602001908152602001600020608060405190810160405280868152602001858152602001848152602001838152509080600181540180825580915050906001820390600052602060002090600402016000909192909190915060008201518160000190805190602001906106e7929190610aac565b506020820151816001015560408201518160020155606082015181600301555050505050505050565b60008181548110151561071f57fe5b906000526020600020016000915090508054600181600116156101000203166002900480601f0160208091040260200160405190810160405280929190818152602001828054600181600116156101000203166002900480156107c35780601f10610798576101008083540402835291602001916107c3565b820191906000526020600020905b8154815290600101906020018083116107a657829003601f168201915b505050505081565b6001602052806000526040600020600091509050806000015490806001018054600181600116156101000203166002900480601f01602080910402602001604051908101604052809291908181526020018280546001816001161561010002031660029004801561087d5780601f106108525761010080835404028352916020019161087d565b820191906000526020600020905b81548152906001019060200180831161086057829003601f168201915b505050505090806002015490806003018054600181600116156101000203166002900480601f0160208091040260200160405190810160405280929190818152602001828054600181600116156101000203166002900480156109215780601f106108f657610100808354040283529160200191610921565b820191906000526020600020905b81548152906001019060200180831161090457829003601f168201915b505050505090806004018054600181600116156101000203166002900480601f0160208091040260200160405190810160405280929190818152602001828054600181600116156101000203166002900480156109bf5780601f10610994576101008083540402835291602001916109bf565b820191906000526020600020905b8154815290600101906020018083116109a257829003601f168201915b5050505050905085565b60026000815480929190600101919050555060a060405190810160405280600254815260200182815260200160008152602001602060405190810160405280600081525081526020016020604051908101604052806000815250815250600160006002548152602001908152602001600020600082015181600001556020820151816001019080519060200190610a61929190610aac565b50604082015181600201556060820151816003019080519060200190610a88929190610aac565b506080820151816004019080519060200190610aa5929190610aac565b5090505050565b828054600181600116156101000203166002900490600052602060002090601f016020900481019282601f10610aed57805160ff1916838001178555610b1b565b82800160010185558215610b1b579182015b82811115610b1a578251825591602001919060010190610aff565b5b509050610b289190610b2c565b5090565b610b4e91905b80821115610b4a576000816000905550600101610b32565b5090565b9056fea165627a7a723058206bb6ea3fe72bb91208128c6648e5cf6fe54a036bf26828dbee6f684bf37b57770029",
  "source": "pragma solidity ^0.5.0;\r\ncontract ATContract{\r\n//Need to change datatype of HID as address in future\r\nstring[] public houseAddress;\r\n  struct houseNode{\r\n     uint houseId;\r\n     string ownerName;\r\n     uint haveTenant;\r\n     string tenantName;\r\n     string digitalDocNo;\r\n  }\r\n  mapping(uint => houseNode) public housenodes;\r\n  uint public totalHouses;\r\n  struct houseMaint{\r\n     string hID;\r\n     uint month;\r\n     uint year;\r\n     uint amountPaid;\r\n  }\r\n  mapping(uint => houseMaint[]) public maintenance;\r\n  function addOwner(string memory oname) public {\r\n     totalHouses++;\r\n     housenodes[totalHouses] = houseNode(totalHouses,oname,0,\"\",\"\");\r\n  }\r\n  function registerMaintenance(uint id,string memory hid,uint month,uint year,uint amnt) public{\r\n    //Todo: Need to check that the house has not done its payment\r\n    maintenance[id].push(houseMaint(hid,month,year,amnt));\r\n  }\r\n  constructor() public {\r\n      addOwner(\"APJAbdulKalam\");\r\n      addOwner(\"Tesla\");\r\n  }\r\n}\r\n",
  "sourcePath": "C:/Users/Sanjay/smart_apt/contracts/ATContract.sol",
  "compiler": {
    "name": "solc",
    "version": "0.5.0+commit.1d4f565a.Emscripten.clang"
  },
  "schemaVersion": "3.0.2",
  "updatedAt": "2019-06-19T13:58:29.190Z",
  "devdoc": {
    "methods": {}
  },
  "userdoc": {
    "methods": {}
  }
}