{
  "contractName": "ATContract",
  "abi": [
    {
      "constant": true,
      "inputs": [
        {
          "name": "",
          "type": "address"
        },
        {
          "name": "",
          "type": "uint256"
        }
      ],
      "name": "maintenance",
      "outputs": [
        {
          "name": "hID",
          "type": "address"
        },
        {
          "name": "month",
          "type": "uint256"
        },
        {
          "name": "year",
          "type": "uint256"
        },
        {
          "name": "amountPaid",
          "type": "uint256"
        },
        {
          "name": "approved",
          "type": "uint256"
        }
      ],
      "payable": false,
      "stateMutability": "view",
      "type": "function",
      "signature": "0x1197492b"
    },
    {
      "constant": true,
      "inputs": [],
      "name": "totalHouses",
      "outputs": [
        {
          "name": "",
          "type": "uint256"
        }
      ],
      "payable": false,
      "stateMutability": "view",
      "type": "function",
      "signature": "0x162d8afb"
    },
    {
      "constant": true,
      "inputs": [],
      "name": "adminCount",
      "outputs": [
        {
          "name": "",
          "type": "uint256"
        }
      ],
      "payable": false,
      "stateMutability": "view",
      "type": "function",
      "signature": "0x2b7832b3"
    },
    {
      "constant": true,
      "inputs": [
        {
          "name": "",
          "type": "address"
        },
        {
          "name": "",
          "type": "uint256"
        }
      ],
      "name": "adminexp",
      "outputs": [
        {
          "name": "adminId",
          "type": "address"
        },
        {
          "name": "category1",
          "type": "uint256"
        },
        {
          "name": "category2",
          "type": "uint256"
        },
        {
          "name": "category3",
          "type": "uint256"
        },
        {
          "name": "category4",
          "type": "uint256"
        },
        {
          "name": "month",
          "type": "uint256"
        },
        {
          "name": "year",
          "type": "uint256"
        }
      ],
      "payable": false,
      "stateMutability": "view",
      "type": "function",
      "signature": "0x3c8c450c"
    },
    {
      "constant": true,
      "inputs": [
        {
          "name": "",
          "type": "uint256"
        }
      ],
      "name": "houseAddress",
      "outputs": [
        {
          "name": "",
          "type": "address"
        }
      ],
      "payable": false,
      "stateMutability": "view",
      "type": "function",
      "signature": "0x72ed4ada"
    },
    {
      "constant": true,
      "inputs": [
        {
          "name": "",
          "type": "address"
        }
      ],
      "name": "totalMaint",
      "outputs": [
        {
          "name": "",
          "type": "uint256"
        }
      ],
      "payable": false,
      "stateMutability": "view",
      "type": "function",
      "signature": "0x812b0d12"
    },
    {
      "constant": true,
      "inputs": [
        {
          "name": "",
          "type": "address"
        }
      ],
      "name": "housenodes",
      "outputs": [
        {
          "name": "houseId",
          "type": "address"
        },
        {
          "name": "ownerName",
          "type": "string"
        },
        {
          "name": "haveTenant",
          "type": "uint256"
        },
        {
          "name": "tenantName",
          "type": "string"
        },
        {
          "name": "digitalDocNo",
          "type": "string"
        }
      ],
      "payable": false,
      "stateMutability": "view",
      "type": "function",
      "signature": "0xaceba657"
    },
    {
      "inputs": [],
      "payable": false,
      "stateMutability": "nonpayable",
      "type": "constructor",
      "signature": "constructor"
    },
    {
      "constant": false,
      "inputs": [
        {
          "name": "hId",
          "type": "address"
        },
        {
          "name": "cat1",
          "type": "uint256"
        },
        {
          "name": "cat2",
          "type": "uint256"
        },
        {
          "name": "cat3",
          "type": "uint256"
        },
        {
          "name": "cat4",
          "type": "uint256"
        },
        {
          "name": "month",
          "type": "uint256"
        },
        {
          "name": "year",
          "type": "uint256"
        }
      ],
      "name": "registerAdminExpense",
      "outputs": [],
      "payable": false,
      "stateMutability": "nonpayable",
      "type": "function",
      "signature": "0xf93713af"
    },
    {
      "constant": false,
      "inputs": [
        {
          "name": "oname",
          "type": "string"
        },
        {
          "name": "hId",
          "type": "address"
        }
      ],
      "name": "addOwner",
      "outputs": [],
      "payable": false,
      "stateMutability": "nonpayable",
      "type": "function",
      "signature": "0xd5958b86"
    },
    {
      "constant": false,
      "inputs": [
        {
          "name": "id",
          "type": "address"
        },
        {
          "name": "month",
          "type": "uint256"
        },
        {
          "name": "year",
          "type": "uint256"
        },
        {
          "name": "amnt",
          "type": "uint256"
        }
      ],
      "name": "registerMaintenance",
      "outputs": [],
      "payable": false,
      "stateMutability": "nonpayable",
      "type": "function",
      "signature": "0xf1d30c99"
    },
    {
      "constant": false,
      "inputs": [
        {
          "name": "hId",
          "type": "address"
        }
      ],
      "name": "sumIndividualHouseMaint",
      "outputs": [
        {
          "name": "res",
          "type": "uint256"
        }
      ],
      "payable": false,
      "stateMutability": "nonpayable",
      "type": "function",
      "signature": "0x4cc52cee"
    },
    {
      "constant": false,
      "inputs": [
        {
          "name": "houseId",
          "type": "address"
        },
        {
          "name": "month",
          "type": "uint256"
        },
        {
          "name": "year",
          "type": "uint256"
        }
      ],
      "name": "approveMaintenance",
      "outputs": [
        {
          "name": "res",
          "type": "uint256"
        }
      ],
      "payable": false,
      "stateMutability": "nonpayable",
      "type": "function",
      "signature": "0xa4984020"
    },
    {
      "constant": false,
      "inputs": [
        {
          "name": "hID",
          "type": "address"
        },
        {
          "name": "month",
          "type": "uint256"
        },
        {
          "name": "year",
          "type": "uint256"
        }
      ],
      "name": "getMaintenanceStatus",
      "outputs": [
        {
          "name": "res",
          "type": "uint256"
        }
      ],
      "payable": false,
      "stateMutability": "nonpayable",
      "type": "function",
      "signature": "0xa7b3d15d"
    }
  ],
  "bytecode": "0x60806040523480156200001157600080fd5b50620000766040805190810160405280600d81526020017f41504a416264756c4b616c616d0000000000000000000000000000000000000081525073e033d9b9ff9e62c65e63a3064b6118194676ad22620000e0640100000000026401000000009004565b620000da6040805190810160405280600581526020017f5465736c610000000000000000000000000000000000000000000000000000008152507316d34680dc5c4a04ded5f784e41809ac09fc8370620000e0640100000000026401000000009004565b620002f4565b60026000815480929190600101919050555060a0604051908101604052808273ffffffffffffffffffffffffffffffffffffffff16815260200183815260200160008152602001602060405190810160405280600081525081526020016020604051908101604052806000815250815250600160008373ffffffffffffffffffffffffffffffffffffffff1673ffffffffffffffffffffffffffffffffffffffff16815260200190815260200160002060008201518160000160006101000a81548173ffffffffffffffffffffffffffffffffffffffff021916908373ffffffffffffffffffffffffffffffffffffffff1602179055506020820151816001019080519060200190620001f592919062000245565b506040820151816002015560608201518160030190805190602001906200021e92919062000245565b5060808201518160040190805190602001906200023d92919062000245565b509050505050565b828054600181600116156101000203166002900490600052602060002090601f016020900481019282601f106200028857805160ff1916838001178555620002b9565b82800160010185558215620002b9579182015b82811115620002b85782518255916020019190600101906200029b565b5b509050620002c89190620002cc565b5090565b620002f191905b80821115620002ed576000816000905550600101620002d3565b5090565b90565b61151b80620003046000396000f3fe6080604052600436106100c5576000357c0100000000000000000000000000000000000000000000000000000000900463ffffffff1680631197492b146100ca578063162d8afb146101815780632b7832b3146101ac5780633c8c450c146101d75780634cc52cee1461029c57806372ed4ada14610301578063812b0d121461037c578063a4984020146103e1578063a7b3d15d1461045a578063aceba657146104d3578063d5958b86146106af578063f1d30c9914610797578063f93713af14610806575b600080fd5b3480156100d657600080fd5b50610123600480360360408110156100ed57600080fd5b81019080803573ffffffffffffffffffffffffffffffffffffffff16906020019092919080359060200190929190505050610893565b604051808673ffffffffffffffffffffffffffffffffffffffff1673ffffffffffffffffffffffffffffffffffffffff1681526020018581526020018481526020018381526020018281526020019550505050505060405180910390f35b34801561018d57600080fd5b50610196610905565b6040518082815260200191505060405180910390f35b3480156101b857600080fd5b506101c161090b565b6040518082815260200191505060405180910390f35b3480156101e357600080fd5b50610230600480360360408110156101fa57600080fd5b81019080803573ffffffffffffffffffffffffffffffffffffffff16906020019092919080359060200190929190505050610911565b604051808873ffffffffffffffffffffffffffffffffffffffff1673ffffffffffffffffffffffffffffffffffffffff16815260200187815260200186815260200185815260200184815260200183815260200182815260200197505050505050505060405180910390f35b3480156102a857600080fd5b506102eb600480360360208110156102bf57600080fd5b81019080803573ffffffffffffffffffffffffffffffffffffffff16906020019092919050505061098f565b6040518082815260200191505060405180910390f35b34801561030d57600080fd5b5061033a6004803603602081101561032457600080fd5b8101908080359060200190929190505050610a5c565b604051808273ffffffffffffffffffffffffffffffffffffffff1673ffffffffffffffffffffffffffffffffffffffff16815260200191505060405180910390f35b34801561038857600080fd5b506103cb6004803603602081101561039f57600080fd5b81019080803573ffffffffffffffffffffffffffffffffffffffff169060200190929190505050610a9a565b6040518082815260200191505060405180910390f35b3480156103ed57600080fd5b506104446004803603606081101561040457600080fd5b81019080803573ffffffffffffffffffffffffffffffffffffffff1690602001909291908035906020019092919080359060200190929190505050610ab2565b6040518082815260200191505060405180910390f35b34801561046657600080fd5b506104bd6004803603606081101561047d57600080fd5b81019080803573ffffffffffffffffffffffffffffffffffffffff1690602001909291908035906020019092919080359060200190929190505050610c59565b6040518082815260200191505060405180910390f35b3480156104df57600080fd5b50610522600480360360208110156104f657600080fd5b81019080803573ffffffffffffffffffffffffffffffffffffffff169060200190929190505050610e08565b604051808673ffffffffffffffffffffffffffffffffffffffff1673ffffffffffffffffffffffffffffffffffffffff168152602001806020018581526020018060200180602001848103845288818151815260200191508051906020019080838360005b838110156105a2578082015181840152602081019050610587565b50505050905090810190601f1680156105cf5780820380516001836020036101000a031916815260200191505b50848103835286818151815260200191508051906020019080838360005b838110156106085780820151818401526020810190506105ed565b50505050905090810190601f1680156106355780820380516001836020036101000a031916815260200191505b50848103825285818151815260200191508051906020019080838360005b8381101561066e578082015181840152602081019050610653565b50505050905090810190601f16801561069b5780820380516001836020036101000a031916815260200191505b509850505050505050505060405180910390f35b3480156106bb57600080fd5b50610795600480360360408110156106d257600080fd5b81019080803590602001906401000000008111156106ef57600080fd5b82018360208201111561070157600080fd5b8035906020019184600183028401116401000000008311171561072357600080fd5b91908080601f016020809104026020016040519081016040528093929190818152602001838380828437600081840152601f19601f820116905080830192505050505050509192919290803573ffffffffffffffffffffffffffffffffffffffff169060200190929190505050611026565b005b3480156107a357600080fd5b50610804600480360360808110156107ba57600080fd5b81019080803573ffffffffffffffffffffffffffffffffffffffff169060200190929190803590602001909291908035906020019092919080359060200190929190505050611185565b005b34801561081257600080fd5b50610891600480360360e081101561082957600080fd5b81019080803573ffffffffffffffffffffffffffffffffffffffff1690602001909291908035906020019092919080359060200190929190803590602001909291908035906020019092919080359060200190929190803590602001909291905050506112f5565b005b6003602052816000526040600020818154811015156108ae57fe5b9060005260206000209060050201600091509150508060000160009054906101000a900473ffffffffffffffffffffffffffffffffffffffff16908060010154908060020154908060030154908060040154905085565b60025481565b60055481565b60066020528160005260406000208181548110151561092c57fe5b9060005260206000209060070201600091509150508060000160009054906101000a900473ffffffffffffffffffffffffffffffffffffffff16908060010154908060020154908060030154908060040154908060050154908060060154905087565b6000806000905060008090505b600460008573ffffffffffffffffffffffffffffffffffffffff1673ffffffffffffffffffffffffffffffffffffffff16815260200190815260200160002054811015610a5257600360008573ffffffffffffffffffffffffffffffffffffffff1673ffffffffffffffffffffffffffffffffffffffff16815260200190815260200160002081815481101515610a2f57fe5b90600052602060002090600502016003015482019150808060010191505061099c565b5080915050919050565b600081815481101515610a6b57fe5b906000526020600020016000915054906101000a900473ffffffffffffffffffffffffffffffffffffffff1681565b60046020528060005260406000206000915090505481565b60008060009050600090505b600460008673ffffffffffffffffffffffffffffffffffffffff1673ffffffffffffffffffffffffffffffffffffffff16815260200190815260200160002054811015610c4c5783600360008773ffffffffffffffffffffffffffffffffffffffff1673ffffffffffffffffffffffffffffffffffffffff16815260200190815260200160002082815481101515610b5257fe5b906000526020600020906005020160010154148015610bcd575082600360008773ffffffffffffffffffffffffffffffffffffffff1673ffffffffffffffffffffffffffffffffffffffff16815260200190815260200160002082815481101515610bb957fe5b906000526020600020906005020160020154145b15610c3f576001600360008773ffffffffffffffffffffffffffffffffffffffff1673ffffffffffffffffffffffffffffffffffffffff16815260200190815260200160002082815481101515610c2057fe5b9060005260206000209060050201600401819055506001915050610c52565b8080600101915050610abe565b60009150505b9392505050565b60008060009050600090505b600460008673ffffffffffffffffffffffffffffffffffffffff1673ffffffffffffffffffffffffffffffffffffffff16815260200190815260200160002054811015610dfb5783600360008773ffffffffffffffffffffffffffffffffffffffff1673ffffffffffffffffffffffffffffffffffffffff16815260200190815260200160002082815481101515610cf957fe5b90600052602060002090600502016001015411158015610d76575082600360008773ffffffffffffffffffffffffffffffffffffffff1673ffffffffffffffffffffffffffffffffffffffff16815260200190815260200160002082815481101515610d6157fe5b90600052602060002090600502016002015411155b8015610ddf57506001600360008773ffffffffffffffffffffffffffffffffffffffff1673ffffffffffffffffffffffffffffffffffffffff16815260200190815260200160002082815481101515610dcb57fe5b906000526020600020906005020160040154145b15610dee576001915050610e01565b8080600101915050610c65565b60009150505b9392505050565b60016020528060005260406000206000915090508060000160009054906101000a900473ffffffffffffffffffffffffffffffffffffffff1690806001018054600181600116156101000203166002900480601f016020809104026020016040519081016040528092919081815260200182805460018160011615610100020316600290048015610eda5780601f10610eaf57610100808354040283529160200191610eda565b820191906000526020600020905b815481529060010190602001808311610ebd57829003601f168201915b505050505090806002015490806003018054600181600116156101000203166002900480601f016020809104026020016040519081016040528092919081815260200182805460018160011615610100020316600290048015610f7e5780601f10610f5357610100808354040283529160200191610f7e565b820191906000526020600020905b815481529060010190602001808311610f6157829003601f168201915b505050505090806004018054600181600116156101000203166002900480601f01602080910402602001604051908101604052809291908181526020018280546001816001161561010002031660029004801561101c5780601f10610ff15761010080835404028352916020019161101c565b820191906000526020600020905b815481529060010190602001808311610fff57829003601f168201915b5050505050905085565b60026000815480929190600101919050555060a0604051908101604052808273ffffffffffffffffffffffffffffffffffffffff16815260200183815260200160008152602001602060405190810160405280600081525081526020016020604051908101604052806000815250815250600160008373ffffffffffffffffffffffffffffffffffffffff1673ffffffffffffffffffffffffffffffffffffffff16815260200190815260200160002060008201518160000160006101000a81548173ffffffffffffffffffffffffffffffffffffffff021916908373ffffffffffffffffffffffffffffffffffffffff160217905550602082015181600101908051906020019061113992919061144a565b5060408201518160020155606082015181600301908051906020019061116092919061144a565b50608082015181600401908051906020019061117d92919061144a565b509050505050565b600360008573ffffffffffffffffffffffffffffffffffffffff1673ffffffffffffffffffffffffffffffffffffffff16815260200190815260200160002060a0604051908101604052808673ffffffffffffffffffffffffffffffffffffffff16815260200185815260200184815260200183815260200160008152509080600181540180825580915050906001820390600052602060002090600502016000909192909190915060008201518160000160006101000a81548173ffffffffffffffffffffffffffffffffffffffff021916908373ffffffffffffffffffffffffffffffffffffffff16021790555060208201518160010155604082015181600201556060820151816003015560808201518160040155505050600460008573ffffffffffffffffffffffffffffffffffffffff1673ffffffffffffffffffffffffffffffffffffffff1681526020019081526020016000206000815480929190600101919050555050505050565b600660008873ffffffffffffffffffffffffffffffffffffffff1673ffffffffffffffffffffffffffffffffffffffff16815260200190815260200160002060e0604051908101604052808973ffffffffffffffffffffffffffffffffffffffff168152602001888152602001878152602001868152602001858152602001848152602001838152509080600181540180825580915050906001820390600052602060002090600702016000909192909190915060008201518160000160006101000a81548173ffffffffffffffffffffffffffffffffffffffff021916908373ffffffffffffffffffffffffffffffffffffffff1602179055506020820151816001015560408201518160020155606082015181600301556080820151816004015560a0820151816005015560c0820151816006015550505060056000815480929190600101919050555050505050505050565b828054600181600116156101000203166002900490600052602060002090601f016020900481019282601f1061148b57805160ff19168380011785556114b9565b828001600101855582156114b9579182015b828111156114b857825182559160200191906001019061149d565b5b5090506114c691906114ca565b5090565b6114ec91905b808211156114e85760008160009055506001016114d0565b5090565b9056fea165627a7a723058205338865e9f5d2da3fc0b69d0f580745fd768794dd1b8716950f03135b21029e40029",
  "source": "pragma solidity ^0.5.0;\r\n\r\ncontract ATContract{\r\n//Need to change datatype of HID as address in future\r\naddress[] public houseAddress;\r\n  struct houseNode{\r\n     address houseId;//need to change this to adddress\r\n     string ownerName;\r\n     uint haveTenant;\r\n     string tenantName;\r\n     string digitalDocNo;\r\n  }\r\n  mapping(address => houseNode) public housenodes;\r\n  uint public totalHouses;\r\n  struct houseMaint{\r\n     address hID;//address\r\n     uint month;\r\n     uint year;\r\n     uint amountPaid;\r\n     uint approved;\r\n  }\r\n  //here uint has to be changed to address\r\n  mapping(address => houseMaint[]) public maintenance;\r\n  //Here also uint needs to be changed to address\r\n  mapping(address => uint) public totalMaint;\r\n  uint public adminCount;\r\n  struct adminExpenses{\r\n     address adminId;\r\n     uint category1;\r\n     uint category2;\r\n     uint category3;\r\n     uint category4;\r\n     uint month;\r\n     uint year;\r\n  }\r\n  mapping(address => adminExpenses[]) public adminexp;\r\n  function registerAdminExpense(address hId,uint cat1,uint cat2,uint cat3,uint cat4,uint month,uint year) public{\r\n      adminexp[hId].push(adminExpenses(hId,cat1,cat2,cat3,cat4,month,year));\r\n      adminCount++;\r\n  }\r\n\r\n  function addOwner(string memory oname,address hId) public {\r\n     totalHouses++;\r\n     housenodes[hId] = houseNode(hId,oname,0,\"\",\"\");\r\n  }\r\n  function registerMaintenance(address id,uint month,uint year,uint amnt) public{\r\n    //Todo: Need to check that the house has not done its payment\r\n    maintenance[id].push(houseMaint(id,month,year,amnt,0));\r\n    totalMaint[id]++;\r\n  }\r\n  function sumIndividualHouseMaint(address hId) public returns (uint res){\r\n     uint totalSum = 0;\r\n     for(uint loop=0;loop<totalMaint[hId];loop++){\r\n       totalSum = totalSum + maintenance[hId][loop].amountPaid;\r\n     }\r\n\r\n     return totalSum;\r\n  }\r\n  function approveMaintenance(address houseId,uint month,uint year) public returns (uint res){\r\n      uint loop = 0;\r\n      for(loop=0;loop<totalMaint[houseId];loop++){\r\n          if(maintenance[houseId][loop].month==month&&maintenance[houseId][loop].year==year){\r\n            maintenance[houseId][loop].approved = 1;\r\n            return 1;\r\n          }\r\n      }\r\n      return 0;\r\n  }\r\n  function getMaintenanceStatus(address hID,uint month,uint year) public returns (uint res){\r\n  uint loop = 0;\r\n  for(loop=0;loop<totalMaint[hID];loop++){\r\n      if(maintenance[hID][loop].month<=month&&maintenance[hID][loop].year<=year&&\r\n      maintenance[hID][loop].approved==1){\r\n              return 1;//got approved\r\n      }\r\n  }\r\n  return 0;//need to approval or not yet paid\r\n  }\r\n  constructor() public {\r\n      addOwner(\"APJAbdulKalam\",0xE033d9b9FF9e62C65e63A3064B6118194676aD22);\r\n      addOwner(\"Tesla\",0x16D34680dc5c4A04DED5f784e41809AC09fc8370);\r\n  }\r\n}\r\n",
  "sourcePath": "C:/Users/Sanjay/smart_apt/contracts/ATContract.sol",
  "compiler": {
    "name": "solc",
    "version": "0.5.0+commit.1d4f565a.Emscripten.clang"
  },
  "schemaVersion": "3.0.2",
  "updatedAt": "2019-06-22T07:27:56.427Z",
  "devdoc": {
    "methods": {}
  },
  "userdoc": {
    "methods": {}
  }
}