{
  "contractName": "ATContract",
  "abi": [
    {
      "constant": true,
      "inputs": [],
      "name": "totalHouses",
      "outputs": [
        {
          "name": "",
          "type": "uint256"
        }
      ],
      "payable": false,
      "stateMutability": "view",
      "type": "function",
      "signature": "0x162d8afb"
    },
    {
      "constant": true,
      "inputs": [],
      "name": "adminCount",
      "outputs": [
        {
          "name": "",
          "type": "uint256"
        }
      ],
      "payable": false,
      "stateMutability": "view",
      "type": "function",
      "signature": "0x2b7832b3"
    },
    {
      "constant": true,
      "inputs": [
        {
          "name": "",
          "type": "address"
        },
        {
          "name": "",
          "type": "uint256"
        }
      ],
      "name": "adminexp",
      "outputs": [
        {
          "name": "adminId",
          "type": "address"
        },
        {
          "name": "category1",
          "type": "uint256"
        },
        {
          "name": "category2",
          "type": "uint256"
        },
        {
          "name": "category3",
          "type": "uint256"
        },
        {
          "name": "category4",
          "type": "uint256"
        },
        {
          "name": "month",
          "type": "uint256"
        },
        {
          "name": "year",
          "type": "uint256"
        }
      ],
      "payable": false,
      "stateMutability": "view",
      "type": "function",
      "signature": "0x3c8c450c"
    },
    {
      "constant": true,
      "inputs": [
        {
          "name": "",
          "type": "uint256"
        }
      ],
      "name": "atledger",
      "outputs": [
        {
          "name": "availableAmount",
          "type": "uint256"
        },
        {
          "name": "maintAmount",
          "type": "uint256"
        },
        {
          "name": "adminExp",
          "type": "uint256"
        },
        {
          "name": "isValue",
          "type": "bool"
        }
      ],
      "payable": false,
      "stateMutability": "view",
      "type": "function",
      "signature": "0x650e55bd"
    },
    {
      "constant": true,
      "inputs": [],
      "name": "maintenanceAmount",
      "outputs": [
        {
          "name": "",
          "type": "uint256"
        }
      ],
      "payable": false,
      "stateMutability": "view",
      "type": "function",
      "signature": "0x70c911f9"
    },
    {
      "constant": true,
      "inputs": [
        {
          "name": "",
          "type": "uint256"
        }
      ],
      "name": "houseAddress",
      "outputs": [
        {
          "name": "",
          "type": "address"
        }
      ],
      "payable": false,
      "stateMutability": "view",
      "type": "function",
      "signature": "0x72ed4ada"
    },
    {
      "constant": true,
      "inputs": [
        {
          "name": "",
          "type": "address"
        }
      ],
      "name": "totalMaint",
      "outputs": [
        {
          "name": "",
          "type": "uint256"
        }
      ],
      "payable": false,
      "stateMutability": "view",
      "type": "function",
      "signature": "0x812b0d12"
    },
    {
      "constant": true,
      "inputs": [],
      "name": "adminAmount",
      "outputs": [
        {
          "name": "",
          "type": "uint256"
        }
      ],
      "payable": false,
      "stateMutability": "view",
      "type": "function",
      "signature": "0x8cd66b5a"
    },
    {
      "constant": true,
      "inputs": [
        {
          "name": "",
          "type": "address"
        }
      ],
      "name": "housenodes",
      "outputs": [
        {
          "name": "houseId",
          "type": "address"
        },
        {
          "name": "ownerName",
          "type": "string"
        },
        {
          "name": "haveTenant",
          "type": "uint256"
        },
        {
          "name": "tenantName",
          "type": "string"
        },
        {
          "name": "digitalDocNo",
          "type": "string"
        }
      ],
      "payable": false,
      "stateMutability": "view",
      "type": "function",
      "signature": "0xaceba657"
    },
    {
      "constant": true,
      "inputs": [
        {
          "name": "",
          "type": "uint256"
        }
      ],
      "name": "transactIds",
      "outputs": [
        {
          "name": "",
          "type": "uint256"
        }
      ],
      "payable": false,
      "stateMutability": "view",
      "type": "function",
      "signature": "0xe1fa35b2"
    },
    {
      "constant": true,
      "inputs": [
        {
          "name": "",
          "type": "uint256"
        }
      ],
      "name": "summaryData",
      "outputs": [
        {
          "name": "hID",
          "type": "address"
        },
        {
          "name": "month",
          "type": "uint256"
        },
        {
          "name": "year",
          "type": "uint256"
        },
        {
          "name": "amountPaid",
          "type": "uint256"
        },
        {
          "name": "approved",
          "type": "uint256"
        }
      ],
      "payable": false,
      "stateMutability": "view",
      "type": "function",
      "signature": "0xe6c410e5"
    },
    {
      "constant": true,
      "inputs": [],
      "name": "currentLedger",
      "outputs": [
        {
          "name": "",
          "type": "uint256"
        }
      ],
      "payable": false,
      "stateMutability": "view",
      "type": "function",
      "signature": "0xf23e7dad"
    },
    {
      "constant": true,
      "inputs": [
        {
          "name": "",
          "type": "uint256"
        }
      ],
      "name": "maintenance",
      "outputs": [
        {
          "name": "hID",
          "type": "address"
        },
        {
          "name": "month",
          "type": "uint256"
        },
        {
          "name": "year",
          "type": "uint256"
        },
        {
          "name": "amountPaid",
          "type": "uint256"
        },
        {
          "name": "approved",
          "type": "uint256"
        }
      ],
      "payable": false,
      "stateMutability": "view",
      "type": "function",
      "signature": "0xfbca6ba6"
    },
    {
      "inputs": [],
      "payable": false,
      "stateMutability": "nonpayable",
      "type": "constructor",
      "signature": "constructor"
    },
    {
      "constant": false,
      "inputs": [
        {
          "name": "transactId",
          "type": "uint256"
        }
      ],
      "name": "getMonthlyLedger",
      "outputs": [
        {
          "name": "",
          "type": "uint256"
        },
        {
          "name": "",
          "type": "uint256"
        },
        {
          "name": "",
          "type": "uint256"
        }
      ],
      "payable": false,
      "stateMutability": "nonpayable",
      "type": "function",
      "signature": "0xf119c2ec"
    },
    {
      "constant": false,
      "inputs": [
        {
          "name": "hId",
          "type": "address"
        },
        {
          "name": "cat1",
          "type": "uint256"
        },
        {
          "name": "cat2",
          "type": "uint256"
        },
        {
          "name": "cat3",
          "type": "uint256"
        },
        {
          "name": "cat4",
          "type": "uint256"
        },
        {
          "name": "month",
          "type": "uint256"
        },
        {
          "name": "year",
          "type": "uint256"
        }
      ],
      "name": "registerAdminExpense",
      "outputs": [],
      "payable": false,
      "stateMutability": "nonpayable",
      "type": "function",
      "signature": "0xf93713af"
    },
    {
      "constant": false,
      "inputs": [
        {
          "name": "month",
          "type": "uint256"
        },
        {
          "name": "year",
          "type": "uint256"
        },
        {
          "name": "adminId",
          "type": "address"
        }
      ],
      "name": "getCurrentATLedger",
      "outputs": [
        {
          "name": "",
          "type": "uint256"
        },
        {
          "name": "",
          "type": "uint256"
        }
      ],
      "payable": false,
      "stateMutability": "nonpayable",
      "type": "function",
      "signature": "0x852b5a10"
    },
    {
      "constant": false,
      "inputs": [
        {
          "name": "oname",
          "type": "string"
        },
        {
          "name": "hId",
          "type": "address"
        }
      ],
      "name": "addOwner",
      "outputs": [],
      "payable": false,
      "stateMutability": "nonpayable",
      "type": "function",
      "signature": "0xd5958b86"
    },
    {
      "constant": false,
      "inputs": [
        {
          "name": "transId",
          "type": "uint256"
        },
        {
          "name": "id",
          "type": "address"
        },
        {
          "name": "month",
          "type": "uint256"
        },
        {
          "name": "year",
          "type": "uint256"
        },
        {
          "name": "amnt",
          "type": "uint256"
        }
      ],
      "name": "registerMaintenance",
      "outputs": [],
      "payable": false,
      "stateMutability": "nonpayable",
      "type": "function",
      "signature": "0xc4cfed04"
    },
    {
      "constant": false,
      "inputs": [
        {
          "name": "transactionId",
          "type": "uint256"
        }
      ],
      "name": "sumIndividualHouseMaint",
      "outputs": [
        {
          "name": "res",
          "type": "uint256"
        }
      ],
      "payable": false,
      "stateMutability": "nonpayable",
      "type": "function",
      "signature": "0xb9e67324"
    },
    {
      "constant": false,
      "inputs": [
        {
          "name": "transId",
          "type": "uint256"
        },
        {
          "name": "month",
          "type": "uint256"
        },
        {
          "name": "year",
          "type": "uint256"
        }
      ],
      "name": "approveMaintenance",
      "outputs": [
        {
          "name": "res",
          "type": "uint256"
        }
      ],
      "payable": false,
      "stateMutability": "nonpayable",
      "type": "function",
      "signature": "0xb71aeeab"
    },
    {
      "constant": false,
      "inputs": [],
      "name": "returnApprovalData",
      "outputs": [
        {
          "name": "res2",
          "type": "uint256[]"
        }
      ],
      "payable": false,
      "stateMutability": "nonpayable",
      "type": "function",
      "signature": "0x25baaf56"
    },
    {
      "constant": false,
      "inputs": [
        {
          "name": "transId",
          "type": "uint256"
        },
        {
          "name": "month",
          "type": "uint256"
        },
        {
          "name": "year",
          "type": "uint256"
        }
      ],
      "name": "getMaintenanceStatus",
      "outputs": [
        {
          "name": "res",
          "type": "uint256"
        }
      ],
      "payable": false,
      "stateMutability": "nonpayable",
      "type": "function",
      "signature": "0xafd24ad9"
    }
  ],
  "bytecode": "0x60806040523480156200001157600080fd5b50620000766040805190810160405280600d81526020017f41504a416264756c4b616c616d0000000000000000000000000000000000000081525073e033d9b9ff9e62c65e63a3064b6118194676ad22620000e0640100000000026401000000009004565b620000da6040805190810160405280600581526020017f5465736c610000000000000000000000000000000000000000000000000000008152507316d34680dc5c4a04ded5f784e41809ac09fc8370620000e0640100000000026401000000009004565b620002f4565b60076000815480929190600101919050555060a0604051908101604052808273ffffffffffffffffffffffffffffffffffffffff16815260200183815260200160008152602001602060405190810160405280600081525081526020016020604051908101604052806000815250815250600660008373ffffffffffffffffffffffffffffffffffffffff1673ffffffffffffffffffffffffffffffffffffffff16815260200190815260200160002060008201518160000160006101000a81548173ffffffffffffffffffffffffffffffffffffffff021916908373ffffffffffffffffffffffffffffffffffffffff1602179055506020820151816001019080519060200190620001f592919062000245565b506040820151816002015560608201518160030190805190602001906200021e92919062000245565b5060808201518160040190805190602001906200023d92919062000245565b509050505050565b828054600181600116156101000203166002900490600052602060002090601f016020900481019282601f106200028857805160ff1916838001178555620002b9565b82800160010185558215620002b9579182015b82811115620002b85782518255916020019190600101906200029b565b5b509050620002c89190620002cc565b5090565b620002f191905b80821115620002ed576000816000905550600101620002d3565b5090565b90565b611b6a80620003046000396000f3fe608060405260043610610128576000357c0100000000000000000000000000000000000000000000000000000000900463ffffffff168063162d8afb1461012d57806325baaf56146101585780632b7832b3146101c45780633c8c450c146101ef578063650e55bd146102b457806370c911f91461031c57806372ed4ada14610347578063812b0d12146103c2578063852b5a10146104275780638cd66b5a146104a7578063aceba657146104d2578063afd24ad9146106ae578063b71aeeab14610711578063b9e6732414610774578063c4cfed04146107c3578063d5958b861461083c578063e1fa35b214610924578063e6c410e514610973578063f119c2ec14610a0a578063f23e7dad14610a67578063f93713af14610a92578063fbca6ba614610b1f575b600080fd5b34801561013957600080fd5b50610142610bb6565b6040518082815260200191505060405180910390f35b34801561016457600080fd5b5061016d610bbc565b6040518080602001828103825283818151815260200191508051906020019060200280838360005b838110156101b0578082015181840152602081019050610195565b505050509050019250505060405180910390f35b3480156101d057600080fd5b506101d9610c33565b6040518082815260200191505060405180910390f35b3480156101fb57600080fd5b506102486004803603604081101561021257600080fd5b81019080803573ffffffffffffffffffffffffffffffffffffffff16906020019092919080359060200190929190505050610c39565b604051808873ffffffffffffffffffffffffffffffffffffffff1673ffffffffffffffffffffffffffffffffffffffff16815260200187815260200186815260200185815260200184815260200183815260200182815260200197505050505050505060405180910390f35b3480156102c057600080fd5b506102ed600480360360208110156102d757600080fd5b8101908080359060200190929190505050610cb7565b604051808581526020018481526020018381526020018215151515815260200194505050505060405180910390f35b34801561032857600080fd5b50610331610cf4565b6040518082815260200191505060405180910390f35b34801561035357600080fd5b506103806004803603602081101561036a57600080fd5b8101908080359060200190929190505050610cfa565b604051808273ffffffffffffffffffffffffffffffffffffffff1673ffffffffffffffffffffffffffffffffffffffff16815260200191505060405180910390f35b3480156103ce57600080fd5b50610411600480360360208110156103e557600080fd5b81019080803573ffffffffffffffffffffffffffffffffffffffff169060200190929190505050610d38565b6040518082815260200191505060405180910390f35b34801561043357600080fd5b5061048a6004803603606081101561044a57600080fd5b810190808035906020019092919080359060200190929190803573ffffffffffffffffffffffffffffffffffffffff169060200190929190505050610d50565b604051808381526020018281526020019250505060405180910390f35b3480156104b357600080fd5b506104bc610fd7565b6040518082815260200191505060405180910390f35b3480156104de57600080fd5b50610521600480360360208110156104f557600080fd5b81019080803573ffffffffffffffffffffffffffffffffffffffff169060200190929190505050610fdd565b604051808673ffffffffffffffffffffffffffffffffffffffff1673ffffffffffffffffffffffffffffffffffffffff168152602001806020018581526020018060200180602001848103845288818151815260200191508051906020019080838360005b838110156105a1578082015181840152602081019050610586565b50505050905090810190601f1680156105ce5780820380516001836020036101000a031916815260200191505b50848103835286818151815260200191508051906020019080838360005b838110156106075780820151818401526020810190506105ec565b50505050905090810190601f1680156106345780820380516001836020036101000a031916815260200191505b50848103825285818151815260200191508051906020019080838360005b8381101561066d578082015181840152602081019050610652565b50505050905090810190601f16801561069a5780820380516001836020036101000a031916815260200191505b509850505050505050505060405180910390f35b3480156106ba57600080fd5b506106fb600480360360608110156106d157600080fd5b810190808035906020019092919080359060200190929190803590602001909291905050506111fb565b6040518082815260200191505060405180910390f35b34801561071d57600080fd5b5061075e6004803603606081101561073457600080fd5b81019080803590602001909291908035906020019092919080359060200190929190505050611275565b6040518082815260200191505060405180910390f35b34801561078057600080fd5b506107ad6004803603602081101561079757600080fd5b810190808035906020019092919050505061141d565b6040518082815260200191505060405180910390f35b3480156107cf57600080fd5b5061083a600480360360a08110156107e657600080fd5b8101908080359060200190929190803573ffffffffffffffffffffffffffffffffffffffff169060200190929190803590602001909291908035906020019092919080359060200190929190505050611448565b005b34801561084857600080fd5b506109226004803603604081101561085f57600080fd5b810190808035906020019064010000000081111561087c57600080fd5b82018360208201111561088e57600080fd5b803590602001918460018302840111640100000000831117156108b057600080fd5b91908080601f016020809104026020016040519081016040528093929190818152602001838380828437600081840152601f19601f820116905080830192505050505050509192919290803573ffffffffffffffffffffffffffffffffffffffff16906020019092919050505061158e565b005b34801561093057600080fd5b5061095d6004803603602081101561094757600080fd5b81019080803590602001909291905050506116ed565b6040518082815260200191505060405180910390f35b34801561097f57600080fd5b506109ac6004803603602081101561099657600080fd5b8101908080359060200190929190505050611710565b604051808673ffffffffffffffffffffffffffffffffffffffff1673ffffffffffffffffffffffffffffffffffffffff1681526020018581526020018481526020018381526020018281526020019550505050505060405180910390f35b348015610a1657600080fd5b50610a4360048036036020811015610a2d57600080fd5b8101908080359060200190929190505050611766565b60405180848152602001838152602001828152602001935050505060405180910390f35b348015610a7357600080fd5b50610a7c6118d7565b6040518082815260200191505060405180910390f35b348015610a9e57600080fd5b50610b1d600480360360e0811015610ab557600080fd5b81019080803573ffffffffffffffffffffffffffffffffffffffff1690602001909291908035906020019092919080359060200190929190803590602001909291908035906020019092919080359060200190929190803590602001909291905050506118dd565b005b348015610b2b57600080fd5b50610b5860048036036020811015610b4257600080fd5b8101908080359060200190929190505050611a43565b604051808673ffffffffffffffffffffffffffffffffffffffff1673ffffffffffffffffffffffffffffffffffffffff1681526020018581526020018481526020018381526020018281526020019550505050505060405180910390f35b60075481565b60608060008090505b600180549050811015610c2b5760096000600183815481101515610be557fe5b90600052602060002001548152602001908152602001600020600301548282815181101515610c1057fe5b90602001906020020181815250508080600101915050610bc5565b508091505090565b600b5481565b600c60205281600052604060002081815481101515610c5457fe5b9060005260206000209060070201600091509150508060000160009054906101000a900473ffffffffffffffffffffffffffffffffffffffff16908060010154908060020154908060030154908060040154908060050154908060060154905087565b60056020528060005260406000206000915090508060000154908060010154908060020154908060030160009054906101000a900460ff16905084565b60035481565b600081815481101515610d0957fe5b906000526020600020016000915054906101000a900473ffffffffffffffffffffffffffffffffffffffff1681565b600a6020528060005260406000206000915090505481565b60008060008090505b600b54811015610fcd5785600c60008673ffffffffffffffffffffffffffffffffffffffff1673ffffffffffffffffffffffffffffffffffffffff16815260200190815260200160002082815481101515610db057fe5b90600052602060002090600702016005015411158015610e2d575084600c60008673ffffffffffffffffffffffffffffffffffffffff1673ffffffffffffffffffffffffffffffffffffffff16815260200190815260200160002082815481101515610e1857fe5b90600052602060002090600702016006015411155b15610fc0576000600c60008673ffffffffffffffffffffffffffffffffffffffff1673ffffffffffffffffffffffffffffffffffffffff16815260200190815260200160002082815481101515610e8057fe5b906000526020600020906007020160040154600c60008773ffffffffffffffffffffffffffffffffffffffff1673ffffffffffffffffffffffffffffffffffffffff16815260200190815260200160002083815481101515610ede57fe5b906000526020600020906007020160030154600c60008873ffffffffffffffffffffffffffffffffffffffff1673ffffffffffffffffffffffffffffffffffffffff16815260200190815260200160002084815481101515610f3c57fe5b906000526020600020906007020160020154600c60008973ffffffffffffffffffffffffffffffffffffffff1673ffffffffffffffffffffffffffffffffffffffff16815260200190815260200160002085815481101515610f9a57fe5b906000526020600020906007020160010154010101905060025481935093505050610fcf565b8080600101915050610d59565b505b935093915050565b60045481565b60066020528060005260406000206000915090508060000160009054906101000a900473ffffffffffffffffffffffffffffffffffffffff1690806001018054600181600116156101000203166002900480601f0160208091040260200160405190810160405280929190818152602001828054600181600116156101000203166002900480156110af5780601f10611084576101008083540402835291602001916110af565b820191906000526020600020905b81548152906001019060200180831161109257829003601f168201915b505050505090806002015490806003018054600181600116156101000203166002900480601f0160208091040260200160405190810160405280929190818152602001828054600181600116156101000203166002900480156111535780601f1061112857610100808354040283529160200191611153565b820191906000526020600020905b81548152906001019060200180831161113657829003601f168201915b505050505090806004018054600181600116156101000203166002900480601f0160208091040260200160405190810160405280929190818152602001828054600181600116156101000203166002900480156111f15780601f106111c6576101008083540402835291602001916111f1565b820191906000526020600020905b8154815290600101906020018083116111d457829003601f168201915b5050505050905085565b600082600960008681526020019081526020016000206001015411158015611239575081600960008681526020019081526020016000206002015411155b801561125b575060016009600086815260200190815260200160002060040154145b15611269576001905061126e565b600090505b9392505050565b60008260086000868152602001908152602001600020600101541480156112b15750816008600086815260200190815260200160002060020154145b15611411576001600860008681526020019081526020016000206004018190555060086000858152602001908152602001600020600960008681526020019081526020016000206000820160009054906101000a900473ffffffffffffffffffffffffffffffffffffffff168160000160006101000a81548173ffffffffffffffffffffffffffffffffffffffff021916908373ffffffffffffffffffffffffffffffffffffffff1602179055506001820154816001015560028201548160020155600382015481600301556004820154816004015590505060086000858152602001908152602001600020600301546003540160038190555060086000858152602001908152602001600020600080820160006101000a81549073ffffffffffffffffffffffffffffffffffffffff02191690556001820160009055600282016000905560038201600090556004820160009055505060019050611416565b600090505b9392505050565b6000806000905060086000848152602001908152602001600020600301548101905080915050919050565b60a0604051908101604052808573ffffffffffffffffffffffffffffffffffffffff16815260200184815260200183815260200182815260200160008152506008600087815260200190815260200160002060008201518160000160006101000a81548173ffffffffffffffffffffffffffffffffffffffff021916908373ffffffffffffffffffffffffffffffffffffffff160217905550602082015181600101556040820151816002015560608201518160030155608082015181600401559050506001859080600181540180825580915050906001820390600052602060002001600090919290919091505550600a60008573ffffffffffffffffffffffffffffffffffffffff1673ffffffffffffffffffffffffffffffffffffffff168152602001908152602001600020600081548092919060010191905055505050505050565b60076000815480929190600101919050555060a0604051908101604052808273ffffffffffffffffffffffffffffffffffffffff16815260200183815260200160008152602001602060405190810160405280600081525081526020016020604051908101604052806000815250815250600660008373ffffffffffffffffffffffffffffffffffffffff1673ffffffffffffffffffffffffffffffffffffffff16815260200190815260200160002060008201518160000160006101000a81548173ffffffffffffffffffffffffffffffffffffffff021916908373ffffffffffffffffffffffffffffffffffffffff16021790555060208201518160010190805190602001906116a1929190611a99565b506040820151816002015560608201518160030190805190602001906116c8929190611a99565b5060808201518160040190805190602001906116e5929190611a99565b509050505050565b6001818154811015156116fc57fe5b906000526020600020016000915090505481565b60096020528060005260406000206000915090508060000160009054906101000a900473ffffffffffffffffffffffffffffffffffffffff16908060010154908060020154908060030154908060040154905085565b60008060006005600085815260200190815260200160002060030160009054906101000a900460ff16156117e4576005600085815260200190815260200160002060000154600560008681526020019081526020016000206001015460056000878152602001908152602001600020600201549250925092506118d0565b60806040519081016040528060035460025401815260200160035481526020016004548152602001600115158152506005600086815260200190815260200160002060008201518160000155602082015181600101556040820151816002015560608201518160030160006101000a81548160ff02191690831515021790555090505060035460025401600281905550600060038190555060006004819055506005600085815260200190815260200160002060000154600560008681526020019081526020016000206001015460056000878152602001908152602001600020600201549250925092505b9193909250565b60025481565b600c60008873ffffffffffffffffffffffffffffffffffffffff1673ffffffffffffffffffffffffffffffffffffffff16815260200190815260200160002060e0604051908101604052808973ffffffffffffffffffffffffffffffffffffffff168152602001888152602001878152602001868152602001858152602001848152602001838152509080600181540180825580915050906001820390600052602060002090600702016000909192909190915060008201518160000160006101000a81548173ffffffffffffffffffffffffffffffffffffffff021916908373ffffffffffffffffffffffffffffffffffffffff1602179055506020820151816001015560408201518160020155606082015181600301556080820151816004015560a0820151816005015560c082015181600601555050508284868801010160045401600481905550600b6000815480929190600101919050555050505050505050565b60086020528060005260406000206000915090508060000160009054906101000a900473ffffffffffffffffffffffffffffffffffffffff16908060010154908060020154908060030154908060040154905085565b828054600181600116156101000203166002900490600052602060002090601f016020900481019282601f10611ada57805160ff1916838001178555611b08565b82800160010185558215611b08579182015b82811115611b07578251825591602001919060010190611aec565b5b509050611b159190611b19565b5090565b611b3b91905b80821115611b37576000816000905550600101611b1f565b5090565b9056fea165627a7a72305820bc7336580495827b260821be29041973f6c7bb70bbe14041d721c36f1c5676cf0029",
  "source": "pragma solidity ^0.5.0;\r\n\r\ncontract ATContract{\r\n//Need to change datatype of HID as address in future\r\naddress[] public houseAddress;\r\nuint[] public transactIds;\r\nuint public currentLedger;\r\nuint public maintenanceAmount;\r\nuint public adminAmount;\r\nstruct ATLedger{\r\n   uint availableAmount;\r\n   uint maintAmount;\r\n   uint adminExp;\r\n   bool isValue;\r\n}\r\nmapping(uint=>ATLedger) public atledger;\r\nfunction getMonthlyLedger(uint transactId) public returns (uint,uint,uint){\r\n   if(atledger[transactId].isValue){\r\n     return (atledger[transactId].availableAmount,atledger[transactId].maintAmount,atledger[transactId].adminExp);\r\n   }else{\r\n      atledger[transactId] = ATLedger(currentLedger+maintenanceAmount,maintenanceAmount,adminAmount,true);\r\n      currentLedger = currentLedger + maintenanceAmount;\r\n      maintenanceAmount = 0;\r\n      adminAmount = 0;\r\n      return (atledger[transactId].availableAmount,atledger[transactId].maintAmount,atledger[transactId].adminExp);\r\n   }\r\n}\r\n  struct houseNode{\r\n     address houseId;//need to change this to adddress\r\n     string ownerName;\r\n     uint haveTenant;\r\n     string tenantName;\r\n     string digitalDocNo;\r\n  }\r\n  mapping(address => houseNode) public housenodes;\r\n  uint public totalHouses;\r\n  struct houseMaint{\r\n     address hID;//address\r\n     uint month;\r\n     uint year;\r\n     uint amountPaid;\r\n     uint approved;\r\n  }\r\n  //here uint has to be changed to address\r\n  mapping(uint => houseMaint) public maintenance;//transaction id\r\n  mapping(uint => houseMaint) public summaryData;\r\n  //Here also uint needs to be changed to address\r\n  mapping(address => uint) public totalMaint;\r\n  uint public adminCount;\r\n  struct adminExpenses{\r\n     address adminId;\r\n     uint category1;\r\n     uint category2;\r\n     uint category3;\r\n     uint category4;\r\n     uint month;\r\n     uint year;\r\n  }\r\n  mapping(address => adminExpenses[]) public adminexp;\r\n  function registerAdminExpense(address hId,uint cat1,uint cat2,uint cat3,uint cat4,uint month,uint year) public{\r\n      adminexp[hId].push(adminExpenses(hId,cat1,cat2,cat3,cat4,month,year));\r\n      adminAmount = adminAmount + (cat1+cat2+cat3+cat4);\r\n      adminCount++;\r\n  }\r\n  function getCurrentATLedger(uint month,uint year,address adminId) public returns(uint,uint){\r\n    uint loop;\r\n    for(loop=0;loop<adminCount;loop++){\r\n       if(adminexp[adminId][loop].month<=month&&adminexp[adminId][loop].year<=year){\r\n       uint adminExp = adminexp[adminId][loop].category1+adminexp[adminId][loop].category2\r\n       +adminexp[adminId][loop].category3+adminexp[adminId][loop].category4;\r\n          return (currentLedger,adminExp);\r\n       }\r\n    }\r\n  }\r\n  function addOwner(string memory oname,address hId) public {\r\n     totalHouses++;\r\n     housenodes[hId] = houseNode(hId,oname,0,\"\",\"\");\r\n  }\r\n  function registerMaintenance(uint transId,address id,uint month,uint year,uint amnt) public{\r\n    //Todo: Need to check that the house has not done its payment\r\n    maintenance[transId] = houseMaint(id,month,year,amnt,0);\r\n    transactIds.push(transId);\r\n    totalMaint[id]++;\r\n  }\r\n  function sumIndividualHouseMaint(uint transactionId) public returns (uint res){\r\n     uint totalSum = 0;\r\n\r\n       totalSum = totalSum + maintenance[transactionId].amountPaid;\r\n       return totalSum;\r\n  }\r\n  function approveMaintenance(uint transId,uint month,uint year) public returns (uint res){\r\n          if(maintenance[transId].month==month&&maintenance[transId].year==year){\r\n            maintenance[transId].approved = 1;\r\n            summaryData[transId] = maintenance[transId];\r\n            maintenanceAmount = maintenanceAmount + maintenance[transId].amountPaid;\r\n            delete maintenance[transId];\r\n            return 1;\r\n          }\r\n      return 0;\r\n  }\r\n  function returnApprovalData() public returns(uint[] memory res2){\r\n  //  uint[] memory houseId;\r\n    uint[] memory amount;\r\n    for(uint ind=0;ind<transactIds.length;ind++){\r\n       //houseId[ind] = (summaryData[transactIds[ind]].hID);\r\n       amount[ind] = (summaryData[transactIds[ind]].amountPaid);\r\n    }\r\n    return (amount);\r\n  }\r\n  function getMaintenanceStatus(uint transId,uint month,uint year) public returns (uint res){\r\n\r\n      if(summaryData[transId].month<=month&&summaryData[transId].year<=year&&\r\n      summaryData[transId].approved==1){\r\n              return 1;//got approved\r\n      }\r\n\r\n  return 0;//need to approval or not yet paid\r\n  }\r\n  constructor() public {\r\n      addOwner(\"APJAbdulKalam\",0xE033d9b9FF9e62C65e63A3064B6118194676aD22);\r\n      addOwner(\"Tesla\",0x16D34680dc5c4A04DED5f784e41809AC09fc8370);\r\n  }\r\n}\r\n",
  "sourcePath": "C:/Users/Sanjay/smart_apt/contracts/ATContract.sol",
  "compiler": {
    "name": "solc",
    "version": "0.5.0+commit.1d4f565a.Emscripten.clang"
  },
  "schemaVersion": "3.0.2",
  "updatedAt": "2019-06-22T10:31:46.775Z",
  "devdoc": {
    "methods": {}
  },
  "userdoc": {
    "methods": {}
  }
}