{
  "contractName": "ATContract",
  "abi": [
    {
      "constant": true,
      "inputs": [],
      "name": "totalHouses",
      "outputs": [
        {
          "name": "",
          "type": "uint256"
        }
      ],
      "payable": false,
      "stateMutability": "view",
      "type": "function",
      "signature": "0x162d8afb"
    },
    {
      "constant": true,
      "inputs": [],
      "name": "adminCount",
      "outputs": [
        {
          "name": "",
          "type": "uint256"
        }
      ],
      "payable": false,
      "stateMutability": "view",
      "type": "function",
      "signature": "0x2b7832b3"
    },
    {
      "constant": true,
      "inputs": [
        {
          "name": "",
          "type": "address"
        },
        {
          "name": "",
          "type": "uint256"
        }
      ],
      "name": "adminexp",
      "outputs": [
        {
          "name": "adminId",
          "type": "address"
        },
        {
          "name": "category1",
          "type": "uint256"
        },
        {
          "name": "category2",
          "type": "uint256"
        },
        {
          "name": "category3",
          "type": "uint256"
        },
        {
          "name": "category4",
          "type": "uint256"
        },
        {
          "name": "month",
          "type": "uint256"
        },
        {
          "name": "year",
          "type": "uint256"
        },
        {
          "name": "transactId",
          "type": "uint256"
        }
      ],
      "payable": false,
      "stateMutability": "view",
      "type": "function",
      "signature": "0x3c8c450c"
    },
    {
      "constant": true,
      "inputs": [
        {
          "name": "",
          "type": "uint256"
        }
      ],
      "name": "atledger",
      "outputs": [
        {
          "name": "availableAmount",
          "type": "uint256"
        },
        {
          "name": "maintAmount",
          "type": "uint256"
        },
        {
          "name": "adminExp",
          "type": "uint256"
        },
        {
          "name": "isValue",
          "type": "bool"
        }
      ],
      "payable": false,
      "stateMutability": "view",
      "type": "function",
      "signature": "0x650e55bd"
    },
    {
      "constant": true,
      "inputs": [],
      "name": "maintenanceAmount",
      "outputs": [
        {
          "name": "",
          "type": "uint256"
        }
      ],
      "payable": false,
      "stateMutability": "view",
      "type": "function",
      "signature": "0x70c911f9"
    },
    {
      "constant": true,
      "inputs": [
        {
          "name": "",
          "type": "uint256"
        }
      ],
      "name": "houseAddress",
      "outputs": [
        {
          "name": "",
          "type": "address"
        }
      ],
      "payable": false,
      "stateMutability": "view",
      "type": "function",
      "signature": "0x72ed4ada"
    },
    {
      "constant": true,
      "inputs": [
        {
          "name": "",
          "type": "address"
        }
      ],
      "name": "totalMaint",
      "outputs": [
        {
          "name": "",
          "type": "uint256"
        }
      ],
      "payable": false,
      "stateMutability": "view",
      "type": "function",
      "signature": "0x812b0d12"
    },
    {
      "constant": true,
      "inputs": [],
      "name": "adminAmount",
      "outputs": [
        {
          "name": "",
          "type": "uint256"
        }
      ],
      "payable": false,
      "stateMutability": "view",
      "type": "function",
      "signature": "0x8cd66b5a"
    },
    {
      "constant": true,
      "inputs": [
        {
          "name": "",
          "type": "address"
        }
      ],
      "name": "housenodes",
      "outputs": [
        {
          "name": "houseId",
          "type": "address"
        },
        {
          "name": "ownerName",
          "type": "string"
        },
        {
          "name": "haveTenant",
          "type": "uint256"
        },
        {
          "name": "tenantName",
          "type": "string"
        },
        {
          "name": "digitalDocNo",
          "type": "string"
        }
      ],
      "payable": false,
      "stateMutability": "view",
      "type": "function",
      "signature": "0xaceba657"
    },
    {
      "constant": true,
      "inputs": [
        {
          "name": "",
          "type": "uint256"
        }
      ],
      "name": "transactIds",
      "outputs": [
        {
          "name": "",
          "type": "uint256"
        }
      ],
      "payable": false,
      "stateMutability": "view",
      "type": "function",
      "signature": "0xe1fa35b2"
    },
    {
      "constant": true,
      "inputs": [
        {
          "name": "",
          "type": "uint256"
        }
      ],
      "name": "summaryData",
      "outputs": [
        {
          "name": "hID",
          "type": "address"
        },
        {
          "name": "month",
          "type": "uint256"
        },
        {
          "name": "year",
          "type": "uint256"
        },
        {
          "name": "amountPaid",
          "type": "uint256"
        },
        {
          "name": "approved",
          "type": "uint256"
        }
      ],
      "payable": false,
      "stateMutability": "view",
      "type": "function",
      "signature": "0xe6c410e5"
    },
    {
      "constant": true,
      "inputs": [],
      "name": "currentLedger",
      "outputs": [
        {
          "name": "",
          "type": "uint256"
        }
      ],
      "payable": false,
      "stateMutability": "view",
      "type": "function",
      "signature": "0xf23e7dad"
    },
    {
      "constant": true,
      "inputs": [
        {
          "name": "",
          "type": "uint256"
        }
      ],
      "name": "maintenance",
      "outputs": [
        {
          "name": "hID",
          "type": "address"
        },
        {
          "name": "month",
          "type": "uint256"
        },
        {
          "name": "year",
          "type": "uint256"
        },
        {
          "name": "amountPaid",
          "type": "uint256"
        },
        {
          "name": "approved",
          "type": "uint256"
        }
      ],
      "payable": false,
      "stateMutability": "view",
      "type": "function",
      "signature": "0xfbca6ba6"
    },
    {
      "inputs": [],
      "payable": false,
      "stateMutability": "nonpayable",
      "type": "constructor",
      "signature": "constructor"
    },
    {
      "constant": false,
      "inputs": [
        {
          "name": "transactId",
          "type": "uint256"
        }
      ],
      "name": "getMonthlyLedger",
      "outputs": [
        {
          "name": "",
          "type": "uint256"
        },
        {
          "name": "",
          "type": "uint256"
        },
        {
          "name": "",
          "type": "uint256"
        }
      ],
      "payable": false,
      "stateMutability": "nonpayable",
      "type": "function",
      "signature": "0xf119c2ec"
    },
    {
      "constant": false,
      "inputs": [
        {
          "name": "cat1",
          "type": "uint256"
        },
        {
          "name": "cat2",
          "type": "uint256"
        },
        {
          "name": "cat3",
          "type": "uint256"
        },
        {
          "name": "cat4",
          "type": "uint256"
        },
        {
          "name": "month",
          "type": "uint256"
        },
        {
          "name": "year",
          "type": "uint256"
        },
        {
          "name": "transactId",
          "type": "uint256"
        }
      ],
      "name": "registerAdminExpense",
      "outputs": [],
      "payable": false,
      "stateMutability": "nonpayable",
      "type": "function",
      "signature": "0xa6ff8ef1"
    },
    {
      "constant": false,
      "inputs": [
        {
          "name": "month",
          "type": "uint256"
        },
        {
          "name": "year",
          "type": "uint256"
        },
        {
          "name": "adminId",
          "type": "address"
        }
      ],
      "name": "getCurrentATLedger",
      "outputs": [
        {
          "name": "",
          "type": "uint256"
        },
        {
          "name": "",
          "type": "uint256"
        }
      ],
      "payable": false,
      "stateMutability": "nonpayable",
      "type": "function",
      "signature": "0x852b5a10"
    },
    {
      "constant": false,
      "inputs": [
        {
          "name": "oname",
          "type": "string"
        },
        {
          "name": "hId",
          "type": "address"
        }
      ],
      "name": "addOwner",
      "outputs": [],
      "payable": false,
      "stateMutability": "nonpayable",
      "type": "function",
      "signature": "0xd5958b86"
    },
    {
      "constant": false,
      "inputs": [
        {
          "name": "transId",
          "type": "uint256"
        },
        {
          "name": "month",
          "type": "uint256"
        },
        {
          "name": "year",
          "type": "uint256"
        },
        {
          "name": "amnt",
          "type": "uint256"
        }
      ],
      "name": "registerMaintenance",
      "outputs": [],
      "payable": false,
      "stateMutability": "nonpayable",
      "type": "function",
      "signature": "0x122e36ce"
    },
    {
      "constant": false,
      "inputs": [
        {
          "name": "transactionId",
          "type": "uint256"
        }
      ],
      "name": "sumIndividualHouseMaint",
      "outputs": [
        {
          "name": "res",
          "type": "uint256"
        }
      ],
      "payable": false,
      "stateMutability": "nonpayable",
      "type": "function",
      "signature": "0xb9e67324"
    },
    {
      "constant": false,
      "inputs": [
        {
          "name": "transId",
          "type": "uint256"
        },
        {
          "name": "month",
          "type": "uint256"
        },
        {
          "name": "year",
          "type": "uint256"
        }
      ],
      "name": "approveMaintenance",
      "outputs": [
        {
          "name": "res",
          "type": "uint256"
        }
      ],
      "payable": false,
      "stateMutability": "nonpayable",
      "type": "function",
      "signature": "0xb71aeeab"
    },
    {
      "constant": false,
      "inputs": [],
      "name": "returnApprovalData",
      "outputs": [
        {
          "name": "res2",
          "type": "uint256[]"
        }
      ],
      "payable": false,
      "stateMutability": "nonpayable",
      "type": "function",
      "signature": "0x25baaf56"
    },
    {
      "constant": false,
      "inputs": [
        {
          "name": "transId",
          "type": "uint256"
        }
      ],
      "name": "getMaintenanceStatus",
      "outputs": [
        {
          "name": "res",
          "type": "uint256"
        }
      ],
      "payable": false,
      "stateMutability": "nonpayable",
      "type": "function",
      "signature": "0xd759ee59"
    }
  ],
  "bytecode": "0x60806040523480156200001157600080fd5b50620000766040805190810160405280600d81526020017f41504a416264756c4b616c616d0000000000000000000000000000000000000081525073e033d9b9ff9e62c65e63a3064b6118194676ad22620000e0640100000000026401000000009004565b620000da6040805190810160405280600581526020017f5465736c610000000000000000000000000000000000000000000000000000008152507316d34680dc5c4a04ded5f784e41809ac09fc8370620000e0640100000000026401000000009004565b620002f4565b60076000815480929190600101919050555060a0604051908101604052808273ffffffffffffffffffffffffffffffffffffffff16815260200183815260200160008152602001602060405190810160405280600081525081526020016020604051908101604052806000815250815250600660008373ffffffffffffffffffffffffffffffffffffffff1673ffffffffffffffffffffffffffffffffffffffff16815260200190815260200160002060008201518160000160006101000a81548173ffffffffffffffffffffffffffffffffffffffff021916908373ffffffffffffffffffffffffffffffffffffffff1602179055506020820151816001019080519060200190620001f592919062000245565b506040820151816002015560608201518160030190805190602001906200021e92919062000245565b5060808201518160040190805190602001906200023d92919062000245565b509050505050565b828054600181600116156101000203166002900490600052602060002090601f016020900481019282601f106200028857805160ff1916838001178555620002b9565b82800160010185558215620002b9579182015b82811115620002b85782518255916020019190600101906200029b565b5b509050620002c89190620002cc565b5090565b620002f191905b80821115620002ed576000816000905550600101620002d3565b5090565b90565b611af780620003046000396000f3fe608060405260043610610128576000357c0100000000000000000000000000000000000000000000000000000000900463ffffffff168063122e36ce1461012d578063162d8afb1461018657806325baaf56146101b15780632b7832b31461021d5780633c8c450c14610248578063650e55bd1461031457806370c911f91461037c57806372ed4ada146103a7578063812b0d1214610422578063852b5a10146104875780638cd66b5a14610507578063a6ff8ef114610532578063aceba657146105a9578063b71aeeab14610785578063b9e67324146107e8578063d5958b8614610837578063d759ee591461091f578063e1fa35b21461096e578063e6c410e5146109bd578063f119c2ec14610a54578063f23e7dad14610ab1578063fbca6ba614610adc575b600080fd5b34801561013957600080fd5b506101846004803603608081101561015057600080fd5b8101908080359060200190929190803590602001909291908035906020019092919080359060200190929190505050610b73565b005b34801561019257600080fd5b5061019b610cb8565b6040518082815260200191505060405180910390f35b3480156101bd57600080fd5b506101c6610cbe565b6040518080602001828103825283818151815260200191508051906020019060200280838360005b838110156102095780820151818401526020810190506101ee565b505050509050019250505060405180910390f35b34801561022957600080fd5b50610232610d35565b6040518082815260200191505060405180910390f35b34801561025457600080fd5b506102a16004803603604081101561026b57600080fd5b81019080803573ffffffffffffffffffffffffffffffffffffffff16906020019092919080359060200190929190505050610d3b565b604051808973ffffffffffffffffffffffffffffffffffffffff1673ffffffffffffffffffffffffffffffffffffffff1681526020018881526020018781526020018681526020018581526020018481526020018381526020018281526020019850505050505050505060405180910390f35b34801561032057600080fd5b5061034d6004803603602081101561033757600080fd5b8101908080359060200190929190505050610dbf565b604051808581526020018481526020018381526020018215151515815260200194505050505060405180910390f35b34801561038857600080fd5b50610391610dfc565b6040518082815260200191505060405180910390f35b3480156103b357600080fd5b506103e0600480360360208110156103ca57600080fd5b8101908080359060200190929190505050610e02565b604051808273ffffffffffffffffffffffffffffffffffffffff1673ffffffffffffffffffffffffffffffffffffffff16815260200191505060405180910390f35b34801561042e57600080fd5b506104716004803603602081101561044557600080fd5b81019080803573ffffffffffffffffffffffffffffffffffffffff169060200190929190505050610e40565b6040518082815260200191505060405180910390f35b34801561049357600080fd5b506104ea600480360360608110156104aa57600080fd5b810190808035906020019092919080359060200190929190803573ffffffffffffffffffffffffffffffffffffffff169060200190929190505050610e58565b604051808381526020018281526020019250505060405180910390f35b34801561051357600080fd5b5061051c6110df565b6040518082815260200191505060405180910390f35b34801561053e57600080fd5b506105a7600480360360e081101561055557600080fd5b81019080803590602001909291908035906020019092919080359060200190929190803590602001909291908035906020019092919080359060200190929190803590602001909291905050506110e5565b005b3480156105b557600080fd5b506105f8600480360360208110156105cc57600080fd5b81019080803573ffffffffffffffffffffffffffffffffffffffff16906020019092919050505061125c565b604051808673ffffffffffffffffffffffffffffffffffffffff1673ffffffffffffffffffffffffffffffffffffffff168152602001806020018581526020018060200180602001848103845288818151815260200191508051906020019080838360005b8381101561067857808201518184015260208101905061065d565b50505050905090810190601f1680156106a55780820380516001836020036101000a031916815260200191505b50848103835286818151815260200191508051906020019080838360005b838110156106de5780820151818401526020810190506106c3565b50505050905090810190601f16801561070b5780820380516001836020036101000a031916815260200191505b50848103825285818151815260200191508051906020019080838360005b83811015610744578082015181840152602081019050610729565b50505050905090810190601f1680156107715780820380516001836020036101000a031916815260200191505b509850505050505050505060405180910390f35b34801561079157600080fd5b506107d2600480360360608110156107a857600080fd5b8101908080359060200190929190803590602001909291908035906020019092919050505061147a565b6040518082815260200191505060405180910390f35b3480156107f457600080fd5b506108216004803603602081101561080b57600080fd5b8101908080359060200190929190505050611622565b6040518082815260200191505060405180910390f35b34801561084357600080fd5b5061091d6004803603604081101561085a57600080fd5b810190808035906020019064010000000081111561087757600080fd5b82018360208201111561088957600080fd5b803590602001918460018302840111640100000000831117156108ab57600080fd5b91908080601f016020809104026020016040519081016040528093929190818152602001838380828437600081840152601f19601f820116905080830192505050505050509192919290803573ffffffffffffffffffffffffffffffffffffffff16906020019092919050505061164d565b005b34801561092b57600080fd5b506109586004803603602081101561094257600080fd5b81019080803590602001909291905050506117ac565b6040518082815260200191505060405180910390f35b34801561097a57600080fd5b506109a76004803603602081101561099157600080fd5b81019080803590602001909291905050506117e0565b6040518082815260200191505060405180910390f35b3480156109c957600080fd5b506109f6600480360360208110156109e057600080fd5b8101908080359060200190929190505050611803565b604051808673ffffffffffffffffffffffffffffffffffffffff1673ffffffffffffffffffffffffffffffffffffffff1681526020018581526020018481526020018381526020018281526020019550505050505060405180910390f35b348015610a6057600080fd5b50610a8d60048036036020811015610a7757600080fd5b8101908080359060200190929190505050611859565b60405180848152602001838152602001828152602001935050505060405180910390f35b348015610abd57600080fd5b50610ac66119ca565b6040518082815260200191505060405180910390f35b348015610ae857600080fd5b50610b1560048036036020811015610aff57600080fd5b81019080803590602001909291905050506119d0565b604051808673ffffffffffffffffffffffffffffffffffffffff1673ffffffffffffffffffffffffffffffffffffffff1681526020018581526020018481526020018381526020018281526020019550505050505060405180910390f35b60a0604051908101604052803373ffffffffffffffffffffffffffffffffffffffff16815260200184815260200183815260200182815260200160008152506008600086815260200190815260200160002060008201518160000160006101000a81548173ffffffffffffffffffffffffffffffffffffffff021916908373ffffffffffffffffffffffffffffffffffffffff160217905550602082015181600101556040820151816002015560608201518160030155608082015181600401559050506001849080600181540180825580915050906001820390600052602060002001600090919290919091505550600a60003373ffffffffffffffffffffffffffffffffffffffff1673ffffffffffffffffffffffffffffffffffffffff1681526020019081526020016000206000815480929190600101919050555050505050565b60075481565b60608060008090505b600180549050811015610d2d5760096000600183815481101515610ce757fe5b90600052602060002001548152602001908152602001600020600301548282815181101515610d1257fe5b90602001906020020181815250508080600101915050610cc7565b508091505090565b600b5481565b600c60205281600052604060002081815481101515610d5657fe5b9060005260206000209060080201600091509150508060000160009054906101000a900473ffffffffffffffffffffffffffffffffffffffff16908060010154908060020154908060030154908060040154908060050154908060060154908060070154905088565b60056020528060005260406000206000915090508060000154908060010154908060020154908060030160009054906101000a900460ff16905084565b60035481565b600081815481101515610e1157fe5b906000526020600020016000915054906101000a900473ffffffffffffffffffffffffffffffffffffffff1681565b600a6020528060005260406000206000915090505481565b60008060008090505b600b548110156110d55785600c60008673ffffffffffffffffffffffffffffffffffffffff1673ffffffffffffffffffffffffffffffffffffffff16815260200190815260200160002082815481101515610eb857fe5b90600052602060002090600802016005015411158015610f35575084600c60008673ffffffffffffffffffffffffffffffffffffffff1673ffffffffffffffffffffffffffffffffffffffff16815260200190815260200160002082815481101515610f2057fe5b90600052602060002090600802016006015411155b156110c8576000600c60008673ffffffffffffffffffffffffffffffffffffffff1673ffffffffffffffffffffffffffffffffffffffff16815260200190815260200160002082815481101515610f8857fe5b906000526020600020906008020160040154600c60008773ffffffffffffffffffffffffffffffffffffffff1673ffffffffffffffffffffffffffffffffffffffff16815260200190815260200160002083815481101515610fe657fe5b906000526020600020906008020160030154600c60008873ffffffffffffffffffffffffffffffffffffffff1673ffffffffffffffffffffffffffffffffffffffff1681526020019081526020016000208481548110151561104457fe5b906000526020600020906008020160020154600c60008973ffffffffffffffffffffffffffffffffffffffff1673ffffffffffffffffffffffffffffffffffffffff168152602001908152602001600020858154811015156110a257fe5b9060005260206000209060080201600101540101019050600254819350935050506110d7565b8080600101915050610e61565b505b935093915050565b60045481565b600c60003373ffffffffffffffffffffffffffffffffffffffff1673ffffffffffffffffffffffffffffffffffffffff168152602001908152602001600020610100604051908101604052803373ffffffffffffffffffffffffffffffffffffffff168152602001898152602001888152602001878152602001868152602001858152602001848152602001838152509080600181540180825580915050906001820390600052602060002090600802016000909192909190915060008201518160000160006101000a81548173ffffffffffffffffffffffffffffffffffffffff021916908373ffffffffffffffffffffffffffffffffffffffff1602179055506020820151816001015560408201518160020155606082015181600301556080820151816004015560a0820151816005015560c0820151816006015560e082015181600701555050508385878901010160045401600481905550600b6000815480929190600101919050555050505050505050565b60066020528060005260406000206000915090508060000160009054906101000a900473ffffffffffffffffffffffffffffffffffffffff1690806001018054600181600116156101000203166002900480601f01602080910402602001604051908101604052809291908181526020018280546001816001161561010002031660029004801561132e5780601f106113035761010080835404028352916020019161132e565b820191906000526020600020905b81548152906001019060200180831161131157829003601f168201915b505050505090806002015490806003018054600181600116156101000203166002900480601f0160208091040260200160405190810160405280929190818152602001828054600181600116156101000203166002900480156113d25780601f106113a7576101008083540402835291602001916113d2565b820191906000526020600020905b8154815290600101906020018083116113b557829003601f168201915b505050505090806004018054600181600116156101000203166002900480601f0160208091040260200160405190810160405280929190818152602001828054600181600116156101000203166002900480156114705780601f1061144557610100808354040283529160200191611470565b820191906000526020600020905b81548152906001019060200180831161145357829003601f168201915b5050505050905085565b60008260086000868152602001908152602001600020600101541480156114b65750816008600086815260200190815260200160002060020154145b15611616576001600860008681526020019081526020016000206004018190555060086000858152602001908152602001600020600960008681526020019081526020016000206000820160009054906101000a900473ffffffffffffffffffffffffffffffffffffffff168160000160006101000a81548173ffffffffffffffffffffffffffffffffffffffff021916908373ffffffffffffffffffffffffffffffffffffffff1602179055506001820154816001015560028201548160020155600382015481600301556004820154816004015590505060086000858152602001908152602001600020600301546003540160038190555060086000858152602001908152602001600020600080820160006101000a81549073ffffffffffffffffffffffffffffffffffffffff0219169055600182016000905560028201600090556003820160009055600482016000905550506001905061161b565b600090505b9392505050565b6000806000905060086000848152602001908152602001600020600301548101905080915050919050565b60076000815480929190600101919050555060a0604051908101604052808273ffffffffffffffffffffffffffffffffffffffff16815260200183815260200160008152602001602060405190810160405280600081525081526020016020604051908101604052806000815250815250600660008373ffffffffffffffffffffffffffffffffffffffff1673ffffffffffffffffffffffffffffffffffffffff16815260200190815260200160002060008201518160000160006101000a81548173ffffffffffffffffffffffffffffffffffffffff021916908373ffffffffffffffffffffffffffffffffffffffff1602179055506020820151816001019080519060200190611760929190611a26565b50604082015181600201556060820151816003019080519060200190611787929190611a26565b5060808201518160040190805190602001906117a4929190611a26565b509050505050565b60006001600960008481526020019081526020016000206004015414156117d657600190506117db565b600090505b919050565b6001818154811015156117ef57fe5b906000526020600020016000915090505481565b60096020528060005260406000206000915090508060000160009054906101000a900473ffffffffffffffffffffffffffffffffffffffff16908060010154908060020154908060030154908060040154905085565b60008060006005600085815260200190815260200160002060030160009054906101000a900460ff16156118d7576005600085815260200190815260200160002060000154600560008681526020019081526020016000206001015460056000878152602001908152602001600020600201549250925092506119c3565b60806040519081016040528060035460025401815260200160035481526020016004548152602001600115158152506005600086815260200190815260200160002060008201518160000155602082015181600101556040820151816002015560608201518160030160006101000a81548160ff02191690831515021790555090505060035460025401600281905550600060038190555060006004819055506005600085815260200190815260200160002060000154600560008681526020019081526020016000206001015460056000878152602001908152602001600020600201549250925092505b9193909250565b60025481565b60086020528060005260406000206000915090508060000160009054906101000a900473ffffffffffffffffffffffffffffffffffffffff16908060010154908060020154908060030154908060040154905085565b828054600181600116156101000203166002900490600052602060002090601f016020900481019282601f10611a6757805160ff1916838001178555611a95565b82800160010185558215611a95579182015b82811115611a94578251825591602001919060010190611a79565b5b509050611aa29190611aa6565b5090565b611ac891905b80821115611ac4576000816000905550600101611aac565b5090565b9056fea165627a7a72305820e602de3c9aa599630156cbafa3c97bdca27f77cc18b0267a2c7d47ff3318a4d90029",
  "source": "pragma solidity ^0.5.0;\r\n\r\ncontract ATContract{\r\n//Need to change datatype of HID as address in future\r\naddress[] public houseAddress;\r\nuint[] public transactIds;\r\nuint public currentLedger;\r\nuint public maintenanceAmount;\r\nuint public adminAmount;\r\nstruct ATLedger{\r\n   uint availableAmount;\r\n   uint maintAmount;\r\n   uint adminExp;\r\n   bool isValue;\r\n}\r\nmapping(uint=>ATLedger) public atledger;\r\nfunction getMonthlyLedger(uint transactId) public returns (uint,uint,uint){\r\n   if(atledger[transactId].isValue){\r\n     return (atledger[transactId].availableAmount,atledger[transactId].maintAmount,atledger[transactId].adminExp);\r\n   }else{\r\n      atledger[transactId] = ATLedger(currentLedger+maintenanceAmount,maintenanceAmount,adminAmount,true);\r\n      currentLedger = currentLedger + maintenanceAmount;\r\n      maintenanceAmount = 0;\r\n      adminAmount = 0;\r\n      return (atledger[transactId].availableAmount,atledger[transactId].maintAmount,atledger[transactId].adminExp);\r\n   }\r\n}\r\n  struct houseNode{\r\n     address houseId;//need to change this to adddress\r\n     string ownerName;\r\n     uint haveTenant;\r\n     string tenantName;\r\n     string digitalDocNo;\r\n  }\r\n  mapping(address => houseNode) public housenodes;\r\n  uint public totalHouses;\r\n  struct houseMaint{\r\n     address hID;//address\r\n     uint month;\r\n     uint year;\r\n     uint amountPaid;\r\n     uint approved;\r\n  }\r\n  //here uint has to be changed to address\r\n  mapping(uint => houseMaint) public maintenance;//transaction id\r\n  mapping(uint => houseMaint) public summaryData;\r\n  //Here also uint needs to be changed to address\r\n  mapping(address => uint) public totalMaint;\r\n  uint public adminCount;\r\n  struct adminExpenses{\r\n     address adminId;\r\n     uint category1;\r\n     uint category2;\r\n     uint category3;\r\n     uint category4;\r\n     uint month;\r\n     uint year;\r\n     uint transactId;\r\n  }\r\n  mapping(address => adminExpenses[]) public adminexp;\r\n  function registerAdminExpense(uint cat1,uint cat2,uint cat3,uint cat4,uint month,uint year,uint transactId) public{\r\n      adminexp[msg.sender].push(adminExpenses(msg.sender,cat1,cat2,cat3,cat4,month,year,transactId));\r\n      adminAmount = adminAmount + (cat1+cat2+cat3+cat4);\r\n      adminCount++;\r\n  }\r\n  function getCurrentATLedger(uint month,uint year,address adminId) public returns(uint,uint){\r\n    uint loop;\r\n    for(loop=0;loop<adminCount;loop++){\r\n       if(adminexp[adminId][loop].month<=month&&adminexp[adminId][loop].year<=year){\r\n       uint adminExp = adminexp[adminId][loop].category1+adminexp[adminId][loop].category2\r\n       +adminexp[adminId][loop].category3+adminexp[adminId][loop].category4;\r\n          return (currentLedger,adminExp);\r\n       }\r\n    }\r\n  }\r\n  function addOwner(string memory oname,address hId) public {\r\n     totalHouses++;\r\n     housenodes[hId] = houseNode(hId,oname,0,\"\",\"\");\r\n  }\r\n  function registerMaintenance(uint transId,uint month,uint year,uint amnt) public{\r\n    //Todo: Need to check that the house has not done its payment\r\n    maintenance[transId] = houseMaint(msg.sender,month,year,amnt,0);\r\n    transactIds.push(transId);\r\n    totalMaint[msg.sender]++;\r\n  }\r\n  function sumIndividualHouseMaint(uint transactionId) public returns (uint res){\r\n     uint totalSum = 0;\r\n\r\n       totalSum = totalSum + maintenance[transactionId].amountPaid;\r\n       return totalSum;\r\n  }\r\n  function approveMaintenance(uint transId,uint month,uint year) public returns (uint res){\r\n          if(maintenance[transId].month==month&&maintenance[transId].year==year){\r\n            maintenance[transId].approved = 1;\r\n            summaryData[transId] = maintenance[transId];\r\n            maintenanceAmount = maintenanceAmount + maintenance[transId].amountPaid;\r\n            delete maintenance[transId];\r\n            return 1;\r\n          }\r\n      return 0;\r\n  }\r\n  function returnApprovalData() public returns(uint[] memory res2){\r\n  //  uint[] memory houseId;\r\n    uint[] memory amount;\r\n    for(uint ind=0;ind<transactIds.length;ind++){\r\n       //houseId[ind] = (summaryData[transactIds[ind]].hID);\r\n       amount[ind] = (summaryData[transactIds[ind]].amountPaid);\r\n    }\r\n    return (amount);\r\n  }\r\n  function getMaintenanceStatus(uint transId) public returns (uint res){\r\n      if(summaryData[transId].approved==1){\r\n              return 1;//got approved\r\n      }\r\n\r\n  return 0;//need to approval or not yet paid\r\n  }\r\n  constructor() public {\r\n      addOwner(\"APJAbdulKalam\",0xE033d9b9FF9e62C65e63A3064B6118194676aD22);\r\n      addOwner(\"Tesla\",0x16D34680dc5c4A04DED5f784e41809AC09fc8370);\r\n  }\r\n}\r\n",
  "sourcePath": "C:/Users/Sanjay/smart_apt/contracts/ATContract.sol",
  "compiler": {
    "name": "solc",
    "version": "0.5.0+commit.1d4f565a.Emscripten.clang"
  },
  "schemaVersion": "3.0.2",
  "updatedAt": "2019-06-22T17:51:30.189Z",
  "devdoc": {
    "methods": {}
  },
  "userdoc": {
    "methods": {}
  }
}